:020000040800F2
:10000000000001207D1500089103000895030008F9
:10001000990300089D030008A103000800000000E8
:10002000000000000000000000000000A503000820
:10003000A903000800000000AD030008B103000898
:10004000C5150008C5150008C5150008C515000828
:10005000C5150008C5150008C5150008C515000818
:10006000C5150008C5150008C5150008C515000808
:10007000C5150008C5150008C5150008C5150008F8
:10008000C5150008C5150008C5150008C5150008E8
:10009000C5150008C5150008C5150008C5150008D8
:1000A000C5150008C5150008C5150008C5150008C8
:1000B000C5150008C5150008C5150008C5150008B8
:1000C000C5150008C5150008C5150008C5150008A8
:1000D000C5150008C5150008C5150008C515000898
:1000E000C5150008C5150008C5150008C515000888
:1000F000C5150008C5150008C5150008C515000878
:10010000C5150008C5150008C5150008C515000867
:10011000C5150008C5150008C5150008C515000857
:10012000C5150008C5150008C5150008C515000847
:1001300000000000000000000000000000000000BF
:1001400000000000000000000000000000000000AF
:10015000000000000000000000000000000000009F
:10016000000000000000000000000000000000008F
:10017000000000000000000000000000000000007F
:10018000000000000000000000000000000000006F
:10019000000000000000000000000000000000005F
:1001A000000000000000000000000000000000004F
:1001B000000000000000000000000000000000003F
:1001C000000000000000000000000000000000002F
:1001D000000000000000000000000000000000001F
:0401E0005FF8E0F1F3
:1001E40010B5054C237833B9044B13B10448AFF36D
:1001F40000800123237010BD0C00002000000000CB
:1002040024160008084B10B51BB108490848AFF381
:1002140000800848036803B910BD074B002BFBD0CE
:10022400BDE81040184700BF000000001000002087
:10023400241600080C0000200000000084B00F4BBE
:100244009A6942F010029A619A6902F010020192CE
:10025400019A9A6942F020029A619A6902F0200296
:100264000292029A9A6942F004029A619B6903F02D
:1002740004030393039B04B0704700BF00100240C3
:1002840030B583B00025ADF804508DF806500095C4
:10029400134C144B23604FF0FF3363604FF48073AF
:1002A400A360204601F004F912238DF804308DF880
:1002B40005508DF80650012201A9204600F04EFF9A
:1002C40001228DF800208DF801208DF802208DF890
:1002D40003506946204601F02DF803B030BD00BF3D
:1002E400280000200028004030B597B028220021C3
:1002F4000CA801F08DF900240794089409940A9439
:100304000B94019402940394049405940694052395
:100314000C934FF480330D9301250F950CA800F036
:10032400FFF80F230793089509940A940B94214628
:1003340007A800F047FB01954FF48073029301A8CE
:1003440000F00EFC17B030BD10B582B000F09AF882
:10035400FFF7CAFFFFF772FFFFF792FF0023ADF824
:1003640004308DF806300093074C0022694620467D
:1003740001F04CF8002201A9204600F04FFF4FF491
:100384007A7000F0A3F8EFE728000020704700BF60
:10039400FEE700BFFEE700BFFEE700BFFEE700BFC9
:1003A400704700BF704700BF704700BF08B500F03A
:1003B4007BF808BD82B00E4B9A6942F001029A6143
:1003C4009A6902F001020092009ADA6942F08052BE
:1003D400DA61DB6903F080530193019B054A53689A
:1003E40023F0E06343F00073536002B0704700BF32
:1003F400001002400000014002680C4B9A4213D1E5
:1004040000B583B000F020FD094BDA6942F00062C8
:10041400DA61DB6903F000630193019B0122054B60
:100424001A6003B05DF804FB704700BF0028004069
:10043400001002403C04424210B504460E4B1878AA
:100444004FF47A73B3FBF0F30C4A1068B0FBF3F08B
:1004540000F0E4FC58B90F2C0BD8002221464FF0D1
:10046400FF3000F0A9FC064B1C60002010BD0120E9
:1004740010BD012010BD00BF0400002008000020B2
:100484000000002008B5074A136843F01003136006
:10049400032000F07FFC0020FFF7CEFFFFF78AFF68
:1004A400002008BD00200240034A1368034909786C
:1004B4000B441360704700BF3C0000200400002080
:1004C400014B1868704700BF3C00002038B5044653
:1004D400FFF7F6FF0546B4F1FF3F02D0044B1B784B
:1004E4001C44FFF7EDFF401B8442FAD838BD00BF1F
:1004F4000400002082B0084B1B68084AA2FB0323B7
:100504005B0A00FB03F0019000BF019B5A1E01929D
:10051400002BF9D102B0704708000020D34D6210BF
:10052400002800F0EC8170B582B00446036813F033
:10053400010F6BD0A84B5B6803F00C03042B0AD0AB
:10054400A54B5B6803F00C03082B0DD1A24B5B6831
:1005540013F4803F08D0A04B1B6813F4003F55D020
:100564006368002B52D1CCE16368B3F5803F05D1B9
:10057400994A136843F48033136026E063B903F1A6
:10058400804303F504331A6822F480321A601A682F
:1005940022F480221A6018E0B3F5A02F0CD103F1E5
:1005A4008043A3F53C331A6842F480221A601A6827
:1005B40042F480321A6008E0874B1A6822F48032D1
:1005C4001A601A6822F480221A6063687BB1FFF70C
:1005D40077FF054605E0FFF773FF401B642800F230
:1005E40092817D4B1B6813F4003FF4D00EE0FFF7BB
:1005F40067FF054605E0FFF763FF401B642800F230
:100604008481754B1B6813F4003FF4D1236813F005
:10061400020F50D0704B5B6813F00C0F0AD06E4B76
:100624005B6803F00C03082B16D16B4B5B6813F467
:10063400803F11D1684B1B6813F0020F03D023696C
:10064400012B40F06481644A136823F0F803616964
:1006540043EAC10313602EE02369D3B101225F4B47
:100664001A60FFF72DFF054605E0FFF729FF401B41
:10067400022800F24E81584B1B6813F0020FF4D08D
:10068400554A136823F0F803616943EAC103136010
:1006940011E00022514B1A60FFF712FF054605E0F6
:1006A400FFF70EFF401B022800F235814A4B1B68FE
:1006B40013F0020FF4D1236813F0080F29D0A369B3
:1006C400ABB10122464B1A60FFF7FAFE054605E07E
:1006D400FFF7F6FE401B022800F21F813E4B5B6AC7
:1006E40013F0020FF4D00120FFF704FF11E0002201
:1006F4003B4B1A60FFF7E4FE054605E0FFF7E0FE1A
:10070400401B022800F20B81334B5B6A13F0020F8B
:10071400F4D1236813F0040F00F08B802E4BDB69B7
:1007240013F0805F0BD12C4BDA6942F08052DA610E
:10073400DB6903F080530193019B012500E0002550
:10074400284B1B6813F4807F13D1264A136843F4A3
:1007540080731360FFF7B4FE064605E0FFF7B0FEB2
:10076400801B642800F2DD801E4B1B6813F4807F1D
:10077400F4D0E368012B05D1174A136A43F001034F
:10078400136222E063B903F1804303F504331A6A68
:1007940022F001021A621A6A22F004021A6214E0B8
:1007A400052B09D10C4B1A6A42F004021A621A6A28
:1007B40042F001021A6208E0074B1A6A22F00102B1
:1007C4001A621A6A22F004021A62E368D3B1FFF7CC
:1007D40077FE064610E000BF0010024000004242CF
:1007E4008004424200700040FFF76AFE801B41F221
:1007F4008833984200F29780544B1B6A13F0020F1F
:10080400F2D010E0FFF75CFE064607E0FFF758FE63
:10081400801B41F28833984200F287804B4B1B6A5D
:1008240013F0020FF2D125B1484AD36923F0805363
:10083400D361E369002B7AD0444A526802F00C0277
:10084400082A4CD0022B37D10022414B1A60FFF703
:1008540037FE054604E0FFF733FE401B022868D844
:100864003A4B1B6813F0007FF5D1236AB3F5803F40
:1008740006D136494B6823F40032A36813434B6016
:100884003248436823F47411236A626A13430B43A6
:10089400436001222E4B1A60FFF712FE044604E067
:1008A400FFF70EFE001B022845D8284B1B6813F0E7
:1008B400007FF5D0002047E00022254B1A60FFF7A7
:1008C400FFFD044604E0FFF7FBFD001B022834D8BB
:1008D4001E4B1B6813F0007FF5D1002034E0012B80
:1008E4002DD01A4B5B6803F48031226A914228D1DF
:1008F40003F47013626A934225D0012024E001209E
:100904007047012020E003201EE003201CE00120AA
:100914001AE0032018E0032016E0032014E003206B
:1009240012E0032010E003200EE003200CE000207E
:100934000AE0032008E0032006E0032004E001208D
:1009440002E0012000E0002002B070BD001002406F
:100954006000424230B486B0164D02AC2868696823
:10096400AA68EB680FC42B8AADF80430124B5B689D
:1009740003F00C02082A19D1C3F3834206A90A44DE
:1009840012F8100C13F4803F0CD00B4B5B68C3F3CC
:1009940040430B4413F8142C084B03FB00F0B0FB4A
:1009A400F2F004E0064B03FB00F000E0034806B05D
:1009B40030BC70473C1600080010024000127A0058
:1009C40000093D00002800F09D8070B50446544B9A
:1009D4001B6803F007038B420BD2514A136823F0C0
:1009E40007030B431360136803F00703994240F0B5
:1009F4008B80236813F0020F17D013F0040F04D078
:100A0400484A536843F4E0635360236813F0080FC3
:100A140004D0444A536843F46053536041484368E4
:100A240023F0F002A368134343600D46236813F0D8
:100A3400010F2ED06268012A05D13A4B1B6813F4CA
:100A4400003F0DD162E0022A05D1364B1B6813F03A
:100A5400007F05D15CE0334B1B6813F0020F59D0C3
:100A640030494B6823F0030313434B60FFF728FD21
:100A7400064606E0FFF724FD801B41F288339842C6
:100A84004AD8284B5B6803F00C036268B3EB820F0F
:100A9400F0D1234B1B6803F007039D420AD2204A7E
:100AA400136823F007032B431360136803F0070351
:100AB4009D4233D1236813F0040F06D019494B68C3
:100AC40023F4E062E36813434B60236813F0080FD8
:100AD40007D0144A536823F46053216943EAC103DD
:100AE4005360FFF737FF0F4B5B68C3F303130E4AE2
:100AF400D35CD8400D4B18600D4B1868FFF79CFC75
:100B0400002070BD01207047012070BD012070BD20
:100B1400012070BD012070BD032070BD012070BD97
:100B24000020024000100240641600080800002063
:100B340000000020014B1868704700BF0800002027
:100B440008B5FFF7F7FF044B5B68C3F3C223034AFE
:100B5400D35CD84008BD00BF0010024074160008E2
:100B640070B582B00446036813F0010F5CD03E4BAD
:100B7400DB6913F0805F0BD13B4BDA6942F08052A2
:100B8400DA61DB6903F080530193019B012600E0E5
:100B94000026364B1B6813F4807F12D1334A136846
:100BA40043F480731360FFF78BFC054604E0FFF702
:100BB40087FC401B64284FD82C4B1B6813F4807FA0
:100BC400F5D0294B1B6A13F4407321D0626802F4F8
:100BD400407293421CD0244A136A23F4407024497F
:100BE40001250D6000250D60106213F0010F0FD078
:100BF400FFF766FC054606E0FFF762FC401B41F286
:100C0400883398422AD8184B1B6A13F0020FF3D08A
:100C140015490B6A23F44072636813430B621EB1D7
:100C2400CB6923F08053CB61236813F0020F06D005
:100C34000D494B6823F44042A36813434B60236877
:100C440013F0100F0CD008494B6823F48002636939
:100C540013434B60002004E0032002E0032000E083
:100C6400002002B070BD00BF0010024000700040C0
:100C74004004424270B586B00646414D02AC286835
:100C84006968AA68EB680FC42B8AADF80430701E3B
:100C94000F2864D8DFE800F03C5863366363633997
:100CA4006363636363636308364B5A681B6813F0BA
:100CB400807F56D0C2F3834306A90B4413F8103C3B
:100CC40012F480320ED02F494968C1F3404106A87E
:100CD400014411F8140C4AB12B4AB2FBF0F000FBAA
:100CE40003F004E0294800FB03F000E00020254B5A
:100CF4005B6813F4800F40D14000254BA3FB003008
:100D040040083AE0FFF726FE37E0FFF723FE34E021
:100D14001C4B1B6A40F202321A40B2F5817F22D08A
:100D240003F44073B3F5007F04D1164A526A12F0FB
:100D3400020F1BD1B3F5407F1BD1124B1B6813F478
:100D4400003F18D1002018E0FFF7FAFE0D4B5B6856
:100D5400C3F3813301335B00B0FBF3F00DE00020FB
:100D64000BE0002009E04FF4004006E049F6404063
:100D740003E0002001E04FF2244006B070BD00BF44
:100D8400501600080010024000127A0000093D00CD
:100D9400ABAAAAAA074AD36823F4E0631B041B0C7A
:100DA400000200F4E060184340F0BF6040F40030FB
:100DB400D060704700ED00E030B4164BDB68C3F33D
:100DC4000223C3F10704042C28BF04241D1D062D8F
:100DD40001D9DD1E00E00025012303FA04F4013CDF
:100DE4002140A940AB40013B1A400A43002808DBDC
:100DF4001201D2B200F1604000F5614080F8002396
:100E040005E000F00F001201D2B2034B1A5430BCBB
:100E1400704700BF00ED00E014ED00E00138B0F1D0
:100E2400807F0AD2064B5860F021064A82F82310CC
:100E34000020986007221A6070470120704700BFA5
:100E440010E000E000ED00E00122014B1A60704761
:100E540020000E420F4B1A6842F001021A605968D2
:100E64000D4A0A405A601A6822F0847222F48032D1
:100E74001A601A6822F480221A605A6822F4FE0268
:100E84005A604FF41F029A604FF00062034B9A605D
:100E9400704700BF001002400000FFF800ED00E0C2
:100EA40030B4026891698DB2D369906984B2A54265
:100EB40004D0D3699BB243EA004002E09BB243EA08
:100EC400014030BC704700BF0368186A5B6A9BB27C
:100ED40043EA0040704700BF002302E001330A38B0
:100EE400C0B20928FAD81B01DBB21843704700BF0F
:100EF400030903EB83035A0000F00F001044C0B24F
:100F0400704700BF10F0030F14D10D4BA3FB002357
:100F14005B09642202FB13039BB26BB9084BA3FB6E
:100F24000023DB094FF4C87202FB130080B228B916
:100F3400012070470020704701207047002070474F
:100F44001F85EB5110B400F5FA64022920D801EB97
:100F54004103C1EBC3011F4BA3FB013102EB51025F
:100F6400224400F2CF7002EB90021B4BA3FB001350
:100F7400A2EB531202EBD31304331848A3FB000172
:100F8400581A01EB50008008C0EBC000181A1DE08D
:100F940001EB4103C1EBC3010E4BA3FB011302EBB5
:100FA4005302A31803EB94020B4BA3FB0434A2EBF0
:100FB400541303EBD41302330848A3FB0001581A5B
:100FC40001EB50008008C0EBC000181AC0B210BC7E
:100FD400704700BF398EE3381F85EB5125499224B1
:100FE4002DE9F84380460F4690F80F90447B867BAA
:100FF400002541E0012C0BD0032C09D0052C07D08F
:10100400072C05D0082C03D00A2C01D00C2C0DD1B0
:101014001E2E01D801362EE00C2C02D001340126FC
:1010240029E009F101090126344624E0042C05D005
:10103400062C03D0092C01D00B2C06D11D2E01D86F
:10104400013618E00134012615E0022C13D11B2EC1
:1010540001D801360FE01C2E09D11FFA89F0FFF7E1
:1010640051FF08B1013606E00134012603E01D2ECC
:1010740001D1013401260135BD42BBD388F80F905C
:10108400E1B288F80D10F2B288F80E204846FFF756
:1010940059FF88F80C00BDE8F88300BF38B5044652
:1010A400FFF70EFA054605E0FFF70AFA401BB0F514
:1010B4007A7F0AD823685A6812F0200FF4D05A684D
:1010C40042F010025A60002038BD032038BD00BF32
:1010D40038B504460268536823F010035360FFF7E1
:1010E400EFF9054605E0FFF7EBF9401BB0F57A7F11
:1010F40006D823685B6813F0200FF4D0002038BDB5
:10110400032038BD38B505460C46FFF7C7FF50B974
:101114002B68220C9A612B68A4B2DC612846FFF785
:10112400D7FF10B938BD012038BD012038BD00BF3C
:1011340038B505460C46FFF7B1FF50B92B68220CB1
:101144001A622B68A4B25C622846FFF7C1FF10B98B
:1011540038BD012038BD012038BD00BF70B500285E
:1011640055D00446002954D0037C012B53D00E469D
:1011740001230374022343745AB90A784B78C3EBEE
:10118400031399004FF4616505FB0215B3781D4400
:1011940011E00878FFF7ACFE4FF4616505FB00F53C
:1011A4007078FFF7A5FEC0EB001083001D44B078F3
:1011B400FFF79EFE054429462046FFF7A3FF064697
:1011C40028B10423637400232374012624E02268D5
:1011D400536823F0050353602046FFF775FEB0F112
:1011E400FF3F0FD085420DD900F5A83101F5C0713C
:1011F4002046FFF79DFF28B1042363740023237462
:10120400012609E0012363740023237404E001260A
:1012140002E0012600E00226304670BD00286BD0B3
:101224002DE9F8430546002968D003685B6813F08C
:10123400040F66D116460C46FFF732FE0746384ABD
:10124400A2FB0032D20A4FF4616000FB1270354BEE
:10125400A3FB00135B096370C3EB03139900411AEA
:10126400A170172A37D9304BA3FB07384FEA184827
:101274002E4BA3FB02131B0903EB4303D900531AA0
:1012840023702846FFF720FE8146B0F1FF3F06D0C9
:10129400874202D2C7EB000901E04FF0FF39244B2B
:1012A40003FB187739462846FFF72CFF60BBB9F1DA
:1012B400FF3F06D009EB07012846FFF739FF28B1A5
:1012C40025E049462846FFF733FF18BB4146284628
:1012D400FFF786FE00E02270FEB12078FFF7FCFDE8
:1012E40020706078FFF7F8FD6070A078FFF7F4FDD8
:1012F400A0700020BDE8F883012070470120BDE8FC
:10130400F8830120BDE8F8830120BDE8F8830120BB
:10131400BDE8F8830120BDE8F8830020BDE8F88328
:10132400C5B3A2918988888807452EC2ABAAAAAA08
:101334008051010000285CD038B5044600295AD0F9
:10134400037C012B59D00D460123037402234374FB
:1013540032B9CB78C3734B7843738B7883730BE0C8
:10136400C878FFF7C5FDE0736878FFF7C1FD6073C7
:10137400A878FFF7BDFDA073A27B617BE07BFFF73C
:10138400E1FD207328702046FFF78AFD1C4BA3FB68
:101394000023B3F5484F27D31A4DA5FB00352B0C7A
:1013A400194D05FB130529462046FFF7ABFE28B16E
:1013B4000423637400232374012038BD2046FFF7FF
:1013C40083FDB0F1FF3F0FD085420DD900F5A83160
:1013D40001F5C0712046FFF7ABFE28B10423637406
:1013E40000232374012038BD01236374002020747A
:1013F40038BD01207047012038BD022038BD00BF30
:10140400C5B3A29107452EC2805101002DE9F041D8
:1014140082B00023ADF804308DF8063000B30546E1
:1014240001B317460C461A4601A9FFF7F7FE064614
:10143400D0B92B7B2370E87BE07095F80D8084F89D
:101444000180AD7BA57087B1FFF746FDE070404693
:10145400FFF742FD60702846FFF73EFDA07004E0F0
:10146400012602E0012600E00126304602B0BDE874
:10147400F08100BFB8B138B504460268536823F060
:1014840008035360FFF71CF8054605E0FFF718F85A
:10149400401BB0F57A7F08D823685B6813F0080F07
:1014A400F4D0002038BD01207047032038BD00BFB0
:1014B400002859D010B50446437C13F0FF0F03D124
:1014C40000230374FEF798FF022363742046FFF79A
:1014D400D1FF18B104236374012348E02046FFF7C9
:1014E400DDFD18B104236374012340E022685368CE
:1014F40023F007035360A36823B11E4A136B23F040
:10150400010313631B49CB6A23F46072A36813437A
:10151400CB626068B0F1FF3F08D10120FFF7AAFB5E
:1015240018B904236374012321E001382268936805
:1015340023F00F0343EA104393602268D3681B0C23
:101544001B0480B21843D0602046FFF7C1FD034658
:1015540018B104236374012309E00022E273012219
:101564006273A273627402E001231846704718463E
:1015740010BD00BF006C0040002103E00B4B5B5822
:10158400435004310A480B4B42189A42F6D30A4A94
:1015940002E0002342F8043B084B9A42F9D3FFF7D8
:1015A40059FC00F00FF8FEF7CFFE704784160008D0
:1015B400000000200C0000200C000020400000204F
:1015C400FEE700000E4B70B51E460E4C0025E41AD3
:1015D400A410A54204D056F8253098470135F8E701
:1015E40000F01EF8084B094C1E46E41AA41000250E
:1015F400A54204D056F8253098470135F8E770BD68
:101604007C1600087C1600087C160008801600086A
:1016140003460244934202D003F8011BFAE77047E1
:10162400F8B500BFF8BC08BC9E467047F8B500BFCB
:08163400F8BC08BC9E4670479B
:10163C0002030405060708090A0B0C0D0E0F101007
:10164C000102000002030405060708090A0B0C0D31
:10165C000E0F10100102000000000000000000003E
:10166C00010203040607080900000000010203043C
:04167C000902000857
:04168000E501000878
:0C16840010000000010000000024F40031
:040000050800157D5D
:00000001FF
