:020000040800F2
:10000000000001208D500008250300082903000886
:100010002D0300083103000835030008000000002C
:10002000000000000000000000000000390300088C
:100030003D030008000000004103000845030008DC
:10004000D5500008D5500008D55000084D030008D1
:10005000D5500008D5500008D5500008D5500008EC
:10006000D5500008D5500008D5500008D5500008DC
:10007000D5500008D5500008D5500008D5500008CC
:10008000D5500008D5500008D5500008D5500008BC
:100090005D030008D5500008D5500008D550000871
:1000A000D5500008D5500008D5500008D55000089C
:1000B000D5500008D5500008D5500008D55000088C
:1000C000D5500008D5500008D5500008D55000087C
:1000D000D5500008D5500008D5500008D55000086C
:1000E000D5500008D5500008D5500008D55000085C
:1000F000D5500008D5500008D5500008D55000084C
:10010000D5500008D5500008D5500008D55000083B
:10011000D5500008D5500008D5500008D55000082B
:10012000D5500008D5500008D5500008D55000081B
:1001300000000000000000000000000000000000BF
:1001400000000000000000000000000000000000AF
:10015000000000000000000000000000000000009F
:10016000000000000000000000000000000000008F
:10017000000000000000000000000000000000007F
:10018000000000000000000000000000000000006F
:10019000000000000000000000000000000000005F
:1001A000000000000000000000000000000000004F
:1001B000000000000000000000000000000000003F
:1001C000000000000000000000000000000000002F
:1001D000000000000000000000000000000000001F
:0401E0005FF8E0F1F3
:1001E40010B5054C237833B9044B13B10448AFF36D
:1001F40000800123237010BDE001002000000000F6
:1002040058600008084B10B51BB108490848AFF303
:1002140000800848036803B910BD074B002BFBD0CE
:10022400BDE81040184700BF00000000E4010020B2
:1002340058600008E00100200000000030B597B0CD
:10024400282200210CA804F06BFF002407940894D2
:1002540009940A940B9401940294039404940594CD
:10026400069409230C934FF480330D9301221092CA
:1002740012920225139514934FF4E01315930CA8CE
:1002840000F0B4F90F230793089509944FF48063A1
:100294000A930B94294607A800F0FAFB1323019351
:1002A4004FF4007302934FF400430393069401A8A0
:1002B40000F0BCFC17B030BD10B582B000F05CF9A2
:1002C400FFF7BCFF04F034FA04F0D0FA01F02AFB83
:1002D40004F018FB04F044FB04F072FB04F0A0FBF0
:1002E40004F084FC04F0AEFC04F0D8FC0A4804F0EA
:1002F40089FA0023ADF804308DF806300093064CDB
:1003040000226946204601F0F3F9002201A92046A3
:1003140001F0F6F8F3E700BFB0130020704700BF08
:10032400704700BFFEE700BFFEE700BFFEE700BF67
:10033400FEE700BF704700BF704700BF704700BFB3
:1003440008B500F02BF908BD08B5024801F0B8FA69
:1003540008BD00BFB013002008B5024802F0A6F99A
:1003640008BD00BFC410002082B00E4B9A6942F051
:1003740001029A619A6902F001020092009ADA6914
:1003840042F08052DA61DB6903F080530193019BF0
:10039400054A536823F0E06343F00073536002B0EE
:1003A400704700BF00100240000001400368244A67
:1003B400904212D002F5006290420ED0B0F1804F0C
:1003C4000BD0A2F59832904207D002F58062904299
:1003D40003D002F58062904203D123F070034A688F
:1003E4001343174A904212D002F5006290420ED095
:1003F400B0F1804F0BD0A2F59832904207D002F5AD
:100404008062904203D002F58062904203D123F4CB
:100414004073CA68134323F080034A69134303609B
:100424008B68C3620B688362054B984203D003F563
:100434000063984201D10B69036301234361704750
:10044400002C014000284AD0F8B505460C4690F827
:100454003D3013F0FF0F04D1002380F83C3004F04A
:100464000FFB022385F83D30294651F8042B93688D
:1004740023F4804323F0070393602868FFF796FF73
:10048400296888688B690F6A2268104323F44073D3
:1004940023F00303A268A66942EA0622134323F465
:1004A4007C4323F0FC03E668E26946EA0226334310
:1004B400226A1203266942EA0612134327F022072E
:1004C4006668626946EA02123A43886029688B6169
:1004D4002B681A62012385F83D300020F8BD012005
:1004E400704700BF90F83C30012B1BD070B401263C
:1004F40080F83C60022380F83D30026854689368B9
:1005040024F070050C682C4323F080054B682B43C2
:1005140054600268936080F83D60002380F83C30AA
:10052400184601E00220704770BC704710B50446BD
:100534000E4B18784FF47A73B3FBF0F30C4A10683F
:10054400B0FBF3F000F0DCFD58B90F2C0BD80022FF
:1005540021464FF0FF3000F093FD064B1C60002055
:1005640010BD012010BD012010BD00BF04000020FB
:10057400080000200000002008B5074A136843F073
:1005840010031360032000F069FD0020FFF7CEFF85
:10059400FFF7EAFE002008BD00200240034A13686A
:1005A400034909780B441360704700BF2C040020F2
:1005B40004000020014B1868704700BF2C04002081
:1005C40082B0084B1B68084AA2FB03235B0A00FBAA
:1005D40003F0019000BF019B5A1E0192002BF9D138
:1005E40002B0704708000020D34D6210002800F0CC
:1005F400EC8170B582B00446036813F0010F6BD030
:10060400A84B5B6803F00C03042B0AD0A54B5B6872
:1006140003F00C03082B0DD1A24B5B6813F4803F4D
:1006240008D0A04B1B6813F4003F55D06368002B1F
:1006340052D1CCE16368B3F5803F05D1994A136880
:1006440043F48033136026E063B903F1804303F578
:1006540004331A6822F480321A601A6822F4802261
:100664001A6018E0B3F5A02F0CD103F18043A3F571
:100674003C331A6842F480221A601A6842F48032C9
:100684001A6008E0874B1A6822F480321A601A68EC
:1006940022F480221A6063687BB1FFF78BFF054662
:1006A40005E0FFF787FF401B642800F292817D4B31
:1006B4001B6813F4003FF4D00EE0FFF77BFF054600
:1006C40005E0FFF777FF401B642800F28481754B37
:1006D4001B6813F4003FF4D1236813F0020F50D0C9
:1006E400704B5B6813F00C0F0AD06E4B5B6803F021
:1006F4000C03082B16D16B4B5B6813F4803F11D1AC
:10070400684B1B6813F0020F03D02369012B40F0E0
:100714006481644A136823F0F803616943EAC103FE
:1007240013602EE02369D3B101225F4B1A60FFF7F7
:1007340041FF054605E0FFF73DFF401B022800F29C
:100744004E81584B1B6813F0020FF4D0554A1368BE
:1007540023F0F803616943EAC103136011E0002246
:10076400514B1A60FFF726FF054605E0FFF722FF0D
:10077400401B022800F235814A4B1B6813F0020F1C
:10078400F4D1236813F0080F29D0A369ABB1012277
:10079400464B1A60FFF70EFF054605E0FFF70AFF18
:1007A400401B022800F21F813E4B5B6A13F0020FCC
:1007B400F4D00120FFF704FF11E000223B4B1A6044
:1007C400FFF7F8FE054605E0FFF7F4FE401B02289C
:1007D40000F20B81334B5B6A13F0020FF4D12368F0
:1007E40013F0040F00F08B802E4BDB6913F0805F55
:1007F4000BD12C4BDA6942F08052DA61DB6903F0E9
:1008040080530193019B012500E00025284B1B68C0
:1008140013F4807F13D1264A136843F48073136062
:10082400FFF7C8FE064605E0FFF7C4FE801B6428F8
:1008340000F2DD801E4B1B6813F4807FF4D0E36864
:10084400012B05D1174A136A43F00103136222E016
:1008540063B903F1804303F504331A6A22F00102F9
:100864001A621A6A22F004021A6214E0052B09D1F2
:100874000C4B1A6A42F004021A621A6A42F001022C
:100884001A6208E0074B1A6A22F001021A621A6A15
:1008940022F004021A62E368D3B1FFF78BFE064626
:1008A40010E000BF001002400000424280044242B7
:1008B40000700040FFF77EFE801B41F288339842AF
:1008C40000F29780544B1B6A13F0020FF2D010E031
:1008D400FFF770FE064607E0FFF76CFE801B41F24F
:1008E4008833984200F287804B4B1B6A13F0020F47
:1008F400F2D125B1484AD36923F08053D361E36927
:10090400002B7AD0444A526802F00C02082A4CD0D8
:10091400022B37D10022414B1A60FFF74BFE0546EC
:1009240004E0FFF747FE401B022868D83A4B1B68D7
:1009340013F0007FF5D1236AB3F5803F06D1364921
:100944004B6823F40032A36813434B603248436876
:1009540023F47411236A626A13430B434360012234
:100964002E4B1A60FFF726FE044604E0FFF722FE32
:10097400001B022845D8284B1B6813F0007FF5D0D4
:10098400002047E00022254B1A60FFF713FE0446BF
:1009940004E0FFF70FFE001B022834D81E4B1B682F
:1009A40013F0007FF5D1002034E0012B2DD01A4B39
:1009B4005B6803F48031226A914228D103F47013F6
:1009C400626A934225D0012024E00120704701206F
:1009D40020E003201EE003201CE001201AE0032095
:1009E40018E0032016E0032014E0032012E00320A3
:1009F40010E003200EE003200CE000200AE00320B6
:100A040008E0032006E0032004E0012002E00120C6
:100A140000E0002002B070BD0010024060004242BD
:100A240030B486B0164D02AC28686968AA68EB68D1
:100A34000FC42B8AADF80430124B5B6803F00C0230
:100A4400082A19D1C3F3834206A90A4412F8100CE8
:100A540013F4803F0CD00B4B5B68C3F340430B444F
:100A640013F8142C084B03FB00F0B0FBF2F004E085
:100A7400064B03FB00F000E0034806B030BC7047AF
:100A8400706000080010024000127A0000093D0066
:100A9400002800F09D8070B50446544B1B6803F099
:100AA40007038B420BD2514A136823F007030B430D
:100AB4001360136803F00703994240F08B802368A6
:100AC40013F0020F17D013F0040F04D0484A5368F0
:100AD40043F4E0635360236813F0080F04D0444ADE
:100AE400536843F4605353604148436823F0F00271
:100AF400A368134343600D46236813F0010F2ED0FF
:100B04006268012A05D13A4B1B6813F4003F0DD1EA
:100B140062E0022A05D1364B1B6813F0007F05D131
:100B24005CE0334B1B6813F0020F59D030494B681B
:100B340023F0030313434B60FFF73CFD064606E036
:100B4400FFF738FD801B41F2883398424AD8284B7E
:100B54005B6803F00C036268B3EB820FF0D1234BA4
:100B64001B6803F007039D420AD2204A136823F04E
:100B740007032B431360136803F007039D4233D12B
:100B8400236813F0040F06D019494B6823F4E0627C
:100B9400E36813434B60236813F0080F07D0144A2B
:100BA400536823F46053216943EAC1035360FFF798
:100BB40037FF0F4B5B68C3F303130E4AD35CD84073
:100BC4000D4B18600D4B1868FFF7B0FC002070BD8A
:100BD40001207047012070BD012070BD012070BD4F
:100BE400012070BD032070BD012070BD00200240B3
:100BF4000010024098600008080000200000002057
:100C0400014B1868704700BF0800002008B5FFF7C3
:100C1400F7FF044B5B68C3F3C223034AD35CD84099
:100C240008BD00BF00100240A860000870B582B083
:100C34000446036813F0010F5CD03E4BDB6913F0EC
:100C4400805F0BD13B4BDA6942F08052DA61DB6999
:100C540003F080530193019B012600E00026364BEC
:100C64001B6813F4807F12D1334A136843F48073F2
:100C74001360FFF79FFC054604E0FFF79BFC401B55
:100C840064284FD82C4B1B6813F4807FF5D0294B74
:100C94001B6A13F4407321D0626802F440729342D9
:100CA4001CD0244A136A23F44070244901250D60A2
:100CB40000250D60106213F0010F0FD0FFF77AFCCE
:100CC400054606E0FFF776FC401B41F28833984264
:100CD4002AD8184B1B6A13F0020FF3D015490B6A7C
:100CE40023F44072636813430B621EB1CB6923F093
:100CF4008053CB61236813F0020F06D00D494B6873
:100D040023F44042A36813434B60236813F0100F8D
:100D14000CD008494B6823F48002636913434B6089
:100D2400002004E0032002E0032000E0002002B0E1
:100D340070BD00BF001002400070004040044242F9
:100D440070B586B00646414D02AC28686968AA6849
:100D5400EB680FC42B8AADF80430701E0F2864D8DA
:100D6400DFE800F03C5863366363633963636363AD
:100D740063636308364B5A681B6813F0807F56D050
:100D8400C2F3834306A90B4413F8103C12F48032D7
:100D94000ED02F494968C1F3404106A8014411F817
:100DA400140C4AB12B4AB2FBF0F000FB03F004E050
:100DB400294800FB03F000E00020254B5B6813F496
:100DC400800F40D14000254BA3FB003040083AE09F
:100DD400FFF726FE37E0FFF723FE34E01C4B1B6AC7
:100DE40040F202321A40B2F5817F22D003F44073FC
:100DF400B3F5007F04D1164A526A12F0020F1BD1D8
:100E0400B3F5407F1BD1124B1B6813F4003F18D17C
:100E1400002018E0FFF7FAFE0D4B5B68C3F3813343
:100E240001335B00B0FBF3F00DE000200BE0002089
:100E340009E04FF4004006E049F6404003E000209A
:100E440001E04FF2244006B070BD00BF846000088A
:100E54000010024000127A0000093D00ABAAAAAAC1
:100E6400F0B583B000263446DEE00122A2401340F0
:100E74009A4240F0D8804D68122D2DD00BD8022D07
:100E840027D003D85DB3012D1ED035E0032D30D01B
:100E9400112D1BD030E0684FBD4220D008D8A7F5F3
:100EA4008017BD421BD007F58037BD4224D116E020
:100EB400624FBD4213D007F58037BD420FD0A7F56E
:100EC4008017BD4218D10AE0CE6815E0CE6804361A
:100ED40012E0CE6808360FE0CE680C360CE08D6860
:100EE4004DB1012D02D10261082605E042610826B8
:100EF40002E0002600E00426FF2B01D8864601E02C
:100F040000F1040EFF2B01D8A20002E0A4F10802B4
:100F14009200DEF800700F25954027EA050506FAD1
:100F240002F22A43CEF800204A6812F0805F7AD099
:100F3400434A956945F001059561926902F0010201
:100F44000192019AA708BD1C3E4A52F825E004F01C
:100F5400030292000F2595402EEA050E3A4DA84251
:100F640015D005F58065A84213D005F58065A84223
:100F740011D005F58065A8420FD005F58065A8421B
:100F84000DD005F58065A8420BD105250AE00025A2
:100F940008E0012506E0022504E0032502E004251B
:100FA40000E0062505FA02F24EEA02020237254D58
:100FB40045F827204A6812F4803F05D005F580657E
:100FC4002A681A432A6004E0204D2A6822EA0302B0
:100FD4002A604A6812F4003F04D01C4D6A681A4320
:100FE4006A6004E0194D6A6822EA03026A604A688A
:100FF40012F4801F04D0154DAA681A43AA6004E0B5
:10100400124DAA6822EA0302AA604A6812F4001F79
:1010140004D00E4DEA681343EB6004E00B4DEA681C
:1010240022EA0303EB6001340B6833FA04F27FF421
:101034001CAF03B0F0BD00BF000021100000311050
:10104400001002400000014000080140000401407B
:101054000AB101617047090401617047074AD36806
:1010640023F4E0631B041B0C000200F4E06018434B
:1010740040F0BF6040F40030D060704700ED00E005
:1010840030B4164BDB68C3F30223C3F10704042C0A
:1010940028BF04241D1D062D01D9DD1E00E00025F6
:1010A400012303FA04F4013C2140A940AB40013B75
:1010B4001A400A43002808DB1201D2B200F1604052
:1010C40000F5614080F8002305E000F00F001201F4
:1010D400D2B2034B1A5430BC704700BF00ED00E09D
:1010E40014ED00E0002808DB420900F01F00012392
:1010F40003FA00F0014B43F82200704700E100E0DE
:101104000138B0F1807F0AD2064B5860F021064ABC
:1011140082F823100020986007221A60704701208B
:10112400704700BF10E000E000ED00E00122014B39
:101134001A60704720000E420F4B1A6842F00102F9
:101144001A6059680D4A0A405A601A6822F084727B
:1011540022F480321A601A6822F480221A605A68D3
:1011640022F4FE025A604FF41F029A604FF00062AC
:10117400034B9A60704700BF001002400000FFF864
:1011840000ED00E030B4026891698DB2D3699069D2
:1011940084B2A54204D0D3699BB243EA004002E082
:1011A4009BB243EA014030BC704700BF0368186A31
:1011B4005B6A9BB243EA0040704700BF002302E031
:1011C40001330A38C0B20928FAD81B01DBB218432C
:1011D400704700BF030903EB83035A0000F00F00BC
:1011E4001044C0B2704700BF10F0030F14D10D4B70
:1011F400A3FB00235B09642202FB13039BB26BB9BC
:10120400084BA3FB0023DB094FF4C87202FB130055
:1012140080B228B901207047002070470120704730
:10122400002070471F85EB5110B400F5FA640229C1
:1012340020D801EB4103C1EBC3011F4BA3FB0131D8
:1012440002EB5102224400F2CF7002EB90021B4BDE
:10125400A3FB0013A2EB531202EBD313043318487D
:10126400A3FB0001581A01EB50008008C0EBC0003A
:10127400181A1DE001EB4103C1EBC3010E4BA3FBA4
:10128400011302EB5302A31803EB94020B4BA3FBD1
:101294000434A2EB541303EBD41302330848A3FB26
:1012A4000001581A01EB50008008C0EBC000181A66
:1012B400C0B210BC704700BF398EE3381F85EB51B4
:1012C400254992242DE9F84380460F4690F80F9063
:1012D400447B867B002541E0012C0BD0032C09D0F4
:1012E400052C07D0072C05D0082C03D00A2C01D0DC
:1012F4000C2C0DD11E2E01D801362EE00C2C02D060
:101304000134012629E009F101090126344624E0CB
:10131400042C05D0062C03D0092C01D00B2C06D1AB
:101324001D2E01D8013618E00134012615E0022CE7
:1013340013D11B2E01D801360FE01C2E09D11FFA40
:1013440089F0FFF751FF08B1013606E001340126A8
:1013540003E01D2E01D1013401260135BD42BBD36A
:1013640088F80F90E1B288F80D10F2B288F80E20D8
:101374004846FFF759FF88F80C00BDE8F88300BF22
:1013840038B50446FFF716F9054605E0FFF712F9EC
:10139400401BB0F57A7F0AD823685A6812F0200FF0
:1013A400F4D05A6842F010025A60002038BD03207D
:1013B40038BD00BF38B504460268536823F01003F3
:1013C4005360FFF7F7F8054605E0FFF7F3F8401B15
:1013D400B0F57A7F06D823685B6813F0200FF4D049
:1013E400002038BD032038BD38B505460C46FFF74C
:1013F400C7FF50B92B68220C9A612B68A4B2DC6138
:101404002846FFF7D7FF10B938BD012038BD0120A9
:1014140038BD00BF38B505460C46FFF7B1FF50B9DB
:101424002B68220C1A622B68A4B25C622846FFF770
:10143400C1FF10B938BD012038BD012038BD00BF3F
:1014440070B5002855D00446002954D0037C012BE4
:1014540053D00E4601230374022343745AB90A7805
:101464004B78C3EB031399004FF4616505FB021538
:10147400B3781D4411E00878FFF7ACFE4FF46165C2
:1014840005FB00F57078FFF7A5FEC0EB00108300A4
:101494001D44B078FFF79EFE054429462046FFF719
:1014A400A3FF064628B10423637400232374012692
:1014B40024E02268536823F0050353602046FFF7B5
:1014C40075FEB0F1FF3F0FD085420DD900F5A8316C
:1014D40001F5C0712046FFF79DFF28B10423637412
:1014E40000232374012609E0012363740023237479
:1014F40004E0012602E0012600E00226304670BD29
:1015040000286BD02DE9F8430546002968D003680C
:101514005B6813F0040F66D116460C46FFF732FEE3
:101524000746384AA2FB0032D20A4FF4616000FB3E
:101534001270354BA3FB00135B096370C3EB0313F9
:101544009900411AA170172A37D9304BA3FB0738E9
:101554004FEA18482E4BA3FB02131B0903EB43036A
:10156400D900531A23702846FFF720FE8146B0F1B4
:10157400FF3F06D0874202D2C7EB000901E04FF0DB
:10158400FF39244B03FB187739462846FFF72CFF15
:1015940060BBB9F1FF3F06D009EB07012846FFF70E
:1015A40039FF28B125E049462846FFF733FF18BB29
:1015B40041462846FFF786FE00E02270FEB12078FF
:1015C400FFF7FCFD20706078FFF7F8FD6070A078ED
:1015D400FFF7F4FDA0700020BDE8F88301207047F8
:1015E4000120BDE8F8830120BDE8F8830120BDE8AF
:1015F400F8830120BDE8F8830120BDE8F8830020CA
:10160400BDE8F883C5B3A2918988888807452EC2AE
:10161400ABAAAAAA8051010000285CD038B50446C0
:1016240000295AD0037C012B59D00D4601230374A1
:101634000223437432B9CB78C3734B7843738B78EA
:1016440083730BE0C878FFF7C5FDE0736878FFF794
:10165400C1FD6073A878FFF7BDFDA073A27B617B19
:10166400E07BFFF7E1FD207328702046FFF78AFD39
:101674001C4BA3FB0023B3F5484F27D31A4DA5FBFE
:1016840000352B0C194D05FB130529462046FFF7A1
:10169400ABFE28B10423637400232374012038BDF6
:1016A4002046FFF783FDB0F1FF3F0FD085420DD9EF
:1016B40000F5A83101F5C0712046FFF7ABFE28B153
:1016C4000423637400232374012038BD012363744D
:1016D4000020207438BD01207047012038BD02204D
:1016E40038BD00BFC5B3A29107452EC28051010089
:1016F4002DE9F04182B00023ADF804308DF80630B6
:1017040000B3054601B317460C461A4601A9FFF774
:10171400F7FE0646D0B92B7B2370E87BE07095F882
:101724000D8084F80180AD7BA57087B1FFF746FD7D
:10173400E0704046FFF742FD60702846FFF73EFD2B
:10174400A07004E0012602E0012600E001263046F4
:1017540002B0BDE8F08100BFB8B138B504460268F4
:10176400536823F008035360FEF724FF054605E0A1
:10177400FEF720FF401BB0F57A7F08D823685B682A
:1017840013F0080FF4D0002038BD01207047032067
:1017940038BD00BF002859D010B50446437C13F06F
:1017A400FF0F03D10023037403F084F8022363744E
:1017B4002046FFF7D1FF18B104236374012348E0E6
:1017C4002046FFF7DDFD18B104236374012340E0D4
:1017D4002268536823F007035360A36823B11E4AA9
:1017E400136B23F0010313631B49CB6A23F4607268
:1017F400A3681343CB626068B0F1FF3F08D10120B6
:10180400FFF79EFA18B904236374012321E0013819
:101814002268936823F00F0343EA1043936022681D
:10182400D3681B0C1B0480B21843D0602046FFF71A
:10183400C1FD034618B104236374012309E00022A7
:10184400E27301226273A273627402E001231846F8
:101854007047184610BD00BF006C004010B303462B
:1018640011B3027C012A21D00122027402224274A3
:10187400104AD26A12F4C07F05D0042242740022B6
:1018840002740120704710B40A4C226B22F003004A
:101894000A6849680A430243226301225A740020F9
:1018A400187405E00120704701207047022070473A
:1018B40010BC7047006C0040704700BF704700BF09
:1018C40003681A6812F0010F1BD05A6812F0010F56
:1018D40017D010B504465B6813F0040F08D0FFF767
:1018E400EDFF23686FF004025A600423637403E07D
:1018F400FFF7E2FF0123637423686FF001025A606B
:1019040010BD7047890001F1804101F5D84192B2C0
:101914000A607047890001F1804101F5D8410868E7
:1019240080B2704708B500220D490E4802F04EF807
:1019340008B1FEF7F3FC0C490A4802F06BF808B151
:10194400FEF7ECFC0949074802F0C2FE08B1FEF7B5
:10195400E5FC044802F074F808B1FEF7DFFC08BDAA
:101964000C00002030040020B00000205C000020A7
:1019740012230B80004870474800002004230B808A
:10198400004870472800002030B4002310E0040F02
:10199400092C03D8303401F8134002E0373401F83D
:1019A400134000015C00013400250D550133DBB206
:1019B4009342ECD330BC704738B50A4B1B680A4AD3
:1019C40014680432106818180AD0084D0822A91C9B
:1019D400FFF7DAFF042205F112012046FFF7D4FFD6
:1019E40038BD00BFE8F7FF1FECF7FF1F2C000020F5
:1019F40008B51A230B80FFF7DFFF014808BD00BFBD
:101A04002C00002008B50A4620B90549054802F013
:101A1400ABFC03E00249034802F0A6FC004808BD01
:101A2400F4060020B060000810B5044C0A462146B4
:101A3400034802F099FC204610BD00BFF4060020C4
:101A4400C860000808B50A4620B90549054802F0EF
:101A54008BFC03E00249034802F086FC004808BD01
:101A6400F4060020DC60000808B50A4620B90549E0
:101A7400054802F079FC03E00249034802F074FCD3
:101A8400004808BDF4060020E86000080020704704
:101A94000020704710B5054C0146204602F028FE90
:101AA400204602F02BFE002010BD00BF30040020B1
:101AB40010B5064C00220649204602F011FE0549E5
:101AC400204602F015FE002010BD00BF30040020A7
:101AD400DC0C0020F408002010B1022802D003E03E
:101AE40000207047012070470220704702680E4BA7
:101AF4009A4217D100B583B003F5DA33DA6942F4B8
:101B04000002DA61DB6903F400030193019B002204
:101B140011461420FFF7B4FA1420FFF7E3FA03B0D8
:101B24005DF804FB704700BF005C004008B500F599
:101B34002C71D0F8E80201F09FFF08BD08B501EB55
:101B44008102D3000344D3F87C21D0F8E80201F0E9
:101B5400C1FF08BD08B501EB8102D3000344DA6B71
:101B6400D0F8E80202F000F808BD00BF08B5D0F8CC
:101B7400E80202F0A1F808BD10B504468368022B00
:101B840001D0FEF7CBFB0121D4F8E80202F07CF887
:101B9400D4F8E80202F050F810BD00BF10B50446B6
:101BA400D0F8E80202F074F8A36923B1024A136979
:101BB40043F00603136110BD00ED00E008B5D0F852
:101BC400E80202F06FF808BD10B504461D48C0F8DD
:101BD400E842C4F8C0021C4B03600823436002239C
:101BE400836000238361C361036200F027F908B1B5
:101BF400FEF794FB182300221146D4F8C00200F02B
:101C04006DFF582300228021D4F8C00200F066FF43
:101C1400C02300228121D4F8C00200F05FFF4FF4FA
:101C2400887300220121D4F8C00200F057FF4FF45A
:101C3400807300228221D4F8C00200F04FFF0020FC
:101C440010BD00BFC4100020005C004008B5D0F8EF
:101C5400C00200F07BF9FFF73FFF08BD10B51C463A
:101C640013462246D0F8C00200F008FEFFF734FF06
:101C740010BD00BF08B5D0F8C00200F039FEFFF770
:101C84002BFF08BD08B5D0F8C00200F0B3FEFFF783
:101C940023FF08BD08B5D0F8C00200F0E5FEFFF749
:101CA4001BFF08BDD0F8C02211F0800F08D001F04E
:101CB4007F01013101EB8101CB0013449878704717
:101CC40001F07F0101EB8101CB00134493F86A0119
:101CD400704700BF08B5D0F8C00200F0D3FCFFF78E
:101CE400FBFE08BD08B5D0F8C00200F05DFEFFF7AA
:101CF400F3FE08BD08B5D0F8C00200F029FEFFF7D6
:101D0400EBFE08BD08B5D0F8C00200F043FE08BDE4
:101D140000487047FC010020704700BF704700BFB7
:101D240070B502F480439BB2002B43D00468B4F82E
:101D340050309BB20D7803EBC503023304EB43032D
:101D4400B3F80044C4F309048B69A34202D31B1BF8
:101D54008B6101E000238B618B697BB9066836F8DF
:101D640025309BB223F4804323F0700383F40053A3
:101D740043F4004343F0800326F8253002F0400288
:101D840092B272B102680D7832F825309BB223F416
:101D9400E04323F0700343F4004343F0C00322F80C
:101DA4002530002C48D023460A894969006801F08F
:101DB400F5FD41E00468B4F850309BB20D7803EBB4
:101DC400C503063304EB4303B3F80044C4F3090426
:101DD4008B69A34202D31B1B8B6101E000238B613F
:101DE4008B697BB9066836F825309BB223F48043AF
:101DF40023F0700383F4005343F4004343F080035F
:101E040026F8253002F0400292B272B902680D78C9
:101E140032F825309BB223F4E04323F0700343F4FB
:101E2400004343F0C00322F825302CB123464A89ED
:101E34004969006801F0B2FD204670BDF0B587B075
:101E440000287FD0044690F8A93213F0FF0F04D184
:101E5400002380F8A832FFF749FE032384F8A9324F
:101E6400206800F06DFE254655F8107B6E460FCDB8
:101E74000FC62B683360231D0ECB384600F04EFE90
:101E840020B1022384F8A93201255CE000212068F6
:101E940000F060FE00231AE0581C81000D18EA00CF
:101EA4002244012555700D18EA00A3549D00EE1834
:101EB400F2002244D3860144CE0026440021F1706E
:101EC4009163D1632B44DA0022441164C3B2656880
:101ED400AB42E1D3002315E09800C118CA002244A4
:101EE400002182F8691182F8683182F86B11C2F816
:101EF4007811C2F87C11C218D0002044C0F88011B7
:101F04000133DBB29D42E7D8254655F8107B6E4677
:101F14000FCD0FC62B683360231D0ECB384600F05F
:101F24001BFE054620B1022384F8A93201250AE0EC
:101F3400002384F82430012384F8A932206801F0B6
:101F44003BF900E00125284607B0F0BD38B590F80C
:101F5400A832012B11D00446012580F8A85200684C
:101F640000F0E4FD29462046FFF7D8FE206801F082
:101F740021F9002084F8A80238BD022038BD00BF32
:101F840070B506460C46154602F040039BB2002B82
:101F940000F0AA800268B2F850309BB2097803EBD3
:101FA400C103023302EB4303B3F80024C2F3090272
:101FB400A369934202D99B1AA36101E00023A361A0
:101FC400A369C3B93046FFF7C5FD05F48045ADB23A
:101FD400002D00F030813268217832F821309BB234
:101FE40023F4E04323F0700343F4404343F08003BD
:101FF40022F821301FE105F48045ADB26DB130689F
:1020040030F821309BB223F4E04323F0700343F40F
:10201400404343F0800320F8213094F82430012B0E
:1020240040F00981636913446361E3691344E36124
:10203400216A2369994202D3C91A21620AE021B9AB
:10204400002384F82430134604E0002384F8243069
:1020540023620B4662789ABB3168B1F8502092B281
:102064000A44217802EB01128BB9B2F8041489B244
:1020740021F4F84189B2A2F80414B2F804146FEA06
:1020840041416FEA514189B2A2F8041425E03E2B84
:1020940009D8590813F0010F00D00131890289B21F
:1020A400A2F8041419E0590913F01F0F00D10139E3
:1020B4006FEAC1616FEA514189B2A2F804140CE0DD
:1020C400012A0AD13168B1F8502092B20A44217829
:1020D40002EB011299B2A2F804149BB2228961693D
:1020E400306801F071F8A6E00268B2F850309BB293
:1020F400097803EBC103063302EB4303B3F800246E
:10210400C2F30902A369934202D39B1AA36101E0BB
:102114000023A361A369C3B93046FFF71BFD05F48F
:102124008045ADB2002D40F086803268217832F8C7
:1021340021309BB223F4E04323F0700343F4404383
:1021440043F0800322F8213075E005F48045ADB2F8
:102154006DB9306830F821309BB223F4E04323F0AA
:10216400700343F4404343F0800320F8213094F893
:102174002430012B5FD1636913446361E369134421
:10218400E361216A2369994202D3C91A21620AE0F0
:1021940021B9002384F82430134604E00023236289
:1021A40084F824300B463068617891BBB0F8502035
:1021B40092B20244217802EB01128BB9B2F80C14EA
:1021C40089B221F4F84189B2A2F80C14B2F80C14C3
:1021D4006FEA41416FEA514189B2A2F80C1424E03C
:1021E4003E2B09D8590813F0010F00D001318902A0
:1021F40089B2A2F80C1418E0590913F01F0F00D18A
:1022040001396FEAC1616FEA514189B2A2F80C1435
:102214000BE0012909D1B0F8502092B20244207891
:1022240002EB001299B2A2F80C149BB262896169A4
:10223400306800F0C9FF3268217832F821309BB24F
:1022440023F4E04323F0400383F0300343F40043DA
:1022540043F0800322F82130002070BD2DE9F041C5
:10226400054604E2B0F844309BB213F00F0440F08A
:10227400D78003F010039BB2002B37D103889BB2A5
:1022840023F4E14323F070036FEA43436FEA5343BB
:102294009BB203802968B1F850309AB295F828307F
:1022A40002EBC303023301EB4303B3F80034C3F37B
:1022B40009036B64EA6B1344EB6300212846FFF7C0
:1022C40049FC95F8243013F0FF0F00F0D0812B6CFB
:1022D400002B40F0CC812A6895F8243043F0800329
:1022E400A2F84C30002385F82430C0E103889BB267
:1022F40003F4006292B212B3B0F850309BB295F876
:10230400682103EBC203063300EB4303B3F8003444
:10231400C3F30903C5F88431B5F86E2105F52C71B2
:1023240001F03CFB2A68138823F070031B051B0D86
:1023340043F0800313802846FFF7F8FB97E113F47A
:10234400004F00F09481038823F070031B051B0DDC
:1023540043F0800303802868B0F850309BB295F8AE
:10236400682103EBC203063300EB4303B3F80034E4
:10237400C3F30903C5F884318BB1D5F87C1171B16D
:10238400B5F86E2101F00AFBD5F87C21D5F884312B
:102394001344C5F87C3100212846FFF7CFFB2A6897
:1023A400B2F850309BB21344D5F878218AB9B3F807
:1023B4000C2492B222F4F84292B2A3F80C24B3F89B
:1023C4000C246FEA42426FEA524292B2A3F80C2400
:1023D40017E03E2A09D8510812F0010F00D001314C
:1023E4008A0292B2A3F80C240BE0510912F01F0FD9
:1023F40000D101396FEAC1626FEA524292B2A3F886
:102404000C242A6813889BB223F4804323F07003BE
:1024140083F4405343F4004343F08003138026E1E4
:1024240030F82460B6B216F4004F00F0BB8030F8E8
:10243400243023F070031B051B0D43F0800320F8A8
:102444002430A3001A194FEAC208424608F5B478AA
:10245400A8442A4492F8743103BB2868B0F8503079
:102464009BB204EB8401CA002A4492F8682103EB6E
:10247400C203063300EB4303B3F80074C7F3090740
:10248400002F68D0A3002344D90029443B46B1F867
:102494006E21D1F87C1101F081FA5CE004EB840236
:1024A400D3002B4493F86B31022B06D132464146BC
:1024B4002846FFF735FC07464DE02968A30023446E
:1024C400DA002A4492F8680131F820309BB223F4F0
:1024D400E04323F0700343F4004343F0C00321F8C6
:1024E4002030286892F8681130F8213003F48043D2
:1024F4009BB2C3B1B0F8502092B202EBC1030233D5
:1025040000EB4303B3F80074C7F309071FB3A30038
:102514002344D90029443B46B1F87021D1F87C11F9
:1025240001F03CFA17E0B0F850309BB203EBC10362
:10253400063300EB4303B3F80074C7F3090757B13C
:10254400A3002344D90029443B46B1F87221D1F8B1
:102554007C1101F023FAA2002244D3002B44D3F8C7
:1025640084213A44C3F88421D3F87C213A44C3F843
:102574007C21D3F880313BB104EB8402D3002B449B
:10258400D3F878319F4209D204EB8402D3002B4460
:1025940093F868112846FFF7D1FA03E0414628680A
:1025A40000F026FE06F080039BB2002B5FD0621C75
:1025B40090008318D90029442F6837F824309BB23F
:1025C40023F4E14323F070036FEA43436FEA534378
:1025D4009BB227F82430CB78022B04D106F4807305
:1025E4009BB2002B3FD12868B0F850309BB2621CDC
:1025F40002EB8202D600AA5D03EBC203023300EBB6
:102604004303B3F80034C3F3090304EB8406F20074
:1026140016462A44126C9A4203D92E44D21A3264C2
:1026240005E004EB8406F2002A440026166404EB59
:102634008406F2002A44126C42B9013404EB840487
:10264400E300E95C2846FFF785FA10E0A7003E198D
:10265400F2002A44D66B1E44D663546C234453645C
:1026640000F0C6FD03E032462846FFF789FC2868DF
:10267400B0F8443013F4004F7FF4F4AD0020BDE80B
:10268400F08100BF90F8A832012B0DD010B504469C
:10269400012380F8A83280F82410006800F084FD3B
:1026A400002084F8A80210BD0220704710B584B041
:1026B4000446006800F082FD10F4004F02D020466A
:1026C400FFF7CCFD206800F079FD10F4806F0FD087
:1026D4002268B2F844309BB223F480639BB2A2F820
:1026E40044302046FFF748FA00212046FFF7CAFF8E
:1026F400206800F063FD10F4804F08D02268B2F81F
:1027040044309BB223F480439BB2A2F84430206847
:1027140000F054FD10F4005F08D02268B2F8443091
:102724009BB223F400539BB2A2F84430206800F01B
:1027340045FD10F4805F1DD02268B2F840309BB292
:1027440023F004039BB2A2F840302268B2F8403070
:102754009BB223F008039BB2A2F840302046FFF757
:102764002DFA2268B2F844309BB223F480539BB212
:10277400A2F84430206800F021FD10F4006F0BD162
:1027840058E0226832F8231004AA02EB430222F82C
:10279400101C0133DBB200E00023072BF1D92268BF
:1027A400B2F840309BB243F00103A2F840302268F3
:1027B400B2F840309BB223F001039BB2A2F8403040
:1027C4002268B2F8443003F480639BB2002BF7D044
:1027D400B2F844309BB223F480639BB2A2F8443035
:1027E400002309E0226804A901EB430131F8101C1D
:1027F40022F823100133DBB2072BF3D92268B2F895
:1028040040309BB243F00803A2F840302268B2F88B
:1028140044309BB223F400639BB2A2F84430226894
:10282400B2F840309BB243F00403A2F84030204693
:10283400FFF7B4F9206800F0C1FC10F4007F0BD05E
:102844002268B2F844309BB223F400739BB2A2F81E
:1028540044302046FFF78AF9206800F0AFFC10F4FA
:10286400807F08D02268B2F844309BB223F480738E
:102874009BB2A2F8443004B010BD00BFF8B511F00B
:10288400800F09D001F007050135AE007719FC006F
:102894000444012565700CE001F00706B500AF198A
:1028A400FC00274604F5B47404440744002587F863
:1028B400695101F0070121702261E370627802B16D
:1028C400E181022B01D10023237190F8A832012B5E
:1028D4000BD00546012380F8A8322146006800F099
:1028E4004FF9002085F8A802F8BD0220F8BD00BF0A
:1028F40038B511F0800F09D001F0070201329400BD
:10290400A518EB00034401225A700CE001F0070201
:102914009400A518EB001D4603F5B4730344054465
:10292400002285F8692101F00701197090F8A822A6
:10293400012A0BD00446012280F8A8221946006817
:1029440000F0C8FA002084F8A80238BD022038BD7F
:10295400F8B501F00705AE007119CC0004F5B474A4
:1029640001197719FC000444C4F87C21C4F88031AF
:102974000023C4F8843184F8693184F868511DB99E
:10298400006800F035FC02E0006800F031FC002033
:10299400F8BD00BF01F0070101EB8101CB00184431
:1029A400D0F88401704700BFF8B501F00706751C24
:1029B4004FEA850E0EEB0504E1000144B7003744ED
:1029C400FC000444E2632364012284F84C20A364E1
:1029D400002363640EEB0504E3001C464A700655AD
:1029E4001EB9006800F004FC02E0006800F000FC7E
:1029F4000020F8BD38B501F0070543689D422FD883
:102A040011F0800F07D06B1C9C00E118CA0002442F
:102A1400012353700BE08B005C18E200144602F5AE
:102A2400B472024421460144002381F86931012330
:102A34009370157090F8A832012B13D0044601232B
:102A440080F8A8321146006800F034FB25B904F57B
:102A54002C71206800F0B6FB002084F8A80238BD71
:102A6400012038BD022038BD38B501F00F0243689B
:102A74009A422FD811F0800F09D001F007030133D7
:102A84009C00E518EA000244012353700DE001F0B4
:102A940007039C00E518EA00154602F5B4720244E7
:102AA4002C460444002384F869310023937001F018
:102AB4000703137090F8A832012B0DD004460123AC
:102AC40080F8A8321146006800F01AFB002084F850
:102AD400A80238BD012038BD022038BD10B401F071
:102AE4008004A4B23CB101F00701013101EB810182
:102AF400CC00204405E001EB8101CC0004F5B47462
:102B0400204412B90273C38004E0012202730381DA
:102B14001B0C4381002010BC704700BF84B001A887
:102B240080E80E00002004B0704700BF0023A0F826
:102B340044304FF43F42A0F840201846704700BF8D
:102B4400B0F8403023F47C535B045B0CA0F84030B5
:102B5400002070470020704784B010B402AC84E8B1
:102B64000E000123A0F840300023A0F84030A0F864
:102B74004430A0F85030184610BC04B0704700BF71
:102B840030B403460D7830F8252092B222F4EC429A
:102B940022F0700292B2C878032803D8DFE800F06C
:102BA400040C100801200CE042F40072002008E03C
:102BB40042F4C062002004E042F48062002000E09D
:102BC400002048F28004224323F825200D7833F8AE
:102BD400252092B222F4E04222F070022A432243DA
:102BE40023F825200A7B002A40F0AC804A78002A8A
:102BF40043D0B3F8502092B21A440C7802EB04127A
:102C0400CC8824F00104A4B2A2F800440C7833F870
:102C1400242002F0400292B262B133F8242092B22E
:102C240022F4E04222F0700242F4004242F0C00278
:102C340023F82420CA78012A10D0097833F82120F7
:102C440092B222F4E04222F0400282F0200242F4E6
:102C5400004242F0800223F8212039E1097833F858
:102C6400212092B222F4E04222F0400242F40042D7
:102C740042F0800223F821202AE1B3F8502092B2D6
:102C84001A440C7802EB0412CC8824F00104A4B298
:102C9400A2F80844B3F8502092B21A440C7802EB1C
:102CA40004120C698CB9B2F80C44A4B224F4F844AC
:102CB400A4B2A2F80C44B2F80C446FEA44446FEA9C
:102CC4005444A4B2A2F80C4417E03E2C09D8650879
:102CD40014F0010F00D00135AD02ADB2A2F80C54CE
:102CE4000BE0650914F01F0F00D1013D6FEAC564C4
:102CF4006FEA5444A4B2A2F80C440C7833F82420AC
:102D040002F4804292B262B133F8242092B222F4E7
:102D1400E04222F0700242F4404242F0800223F882
:102D24002420097833F8212092B222F4804222F040
:102D3400700282F4405242F4004242F0800223F8CE
:102D44002120C5E00C7833F8242092B222F4E0422A
:102D540022F0700242F4014242F0800223F824205F
:102D6400B3F8502092B21A440C7802EB04120C8986
:102D740024F00104A4B2A2F80044B3F8502092B2A3
:102D84001A440C7802EB04124C8924F00104A4B216
:102D9400A2F808444A78002A42D10C7833F8242057
:102DA40002F4804292B262B133F8242092B222F447
:102DB400E04222F0700242F4404242F0800223F8E2
:102DC40024200C7833F8242002F0400292B262B13D
:102DD40033F8242092B222F4E04222F0700242F44A
:102DE400004242F0C00223F824200D7833F8252055
:102DF40092B222F4804222F0700282F4405248F2ED
:102E04008004224323F82520097833F8212092B244
:102E140022F4E04222F04002224323F8212057E02A
:102E24000C7833F8242002F4804292B262B133F871
:102E3400242092B222F4E04222F0700242F4404292
:102E440042F0800223F824200C7833F8242002F086
:102E5400400292B262B133F8242092B222F4E042EA
:102E640022F0700242F4004242F0C00223F824200F
:102E7400CA78012A10D00C7833F8242092B222F4B4
:102E8400E04222F0400282F0200242F4004242F08A
:102E9400800223F824200DE00C7833F8242092B229
:102EA40022F4E04222F0400242F4004242F0800266
:102EB40023F82420097833F8212092B222F48042A6
:102EC40022F0700242F4004242F0800223F82120F2
:102ED40030BC70470B7B002B48D14B781BB30A786E
:102EE40030F8223003F040039BB263B130F8223053
:102EF4009BB223F4E04323F0700343F4004343F014
:102F0400C00320F822300A7830F822309BB223F430
:102F1400E04323F0400343F4004343F0800320F8EC
:102F24002230002070470A7830F8223003F48043BE
:102F34009BB263B130F822309BB223F4E04323F018
:102F4400700343F4404343F0800320F822300A78AE
:102F540030F822309BB223F4804323F0700343F40F
:102F6400004343F0800320F82230DAE710B44B78B2
:102F7400002B4ED10A7830F8223003F480439BB200
:102F840063B130F822309BB223F4E04323F07003A2
:102F940043F4404343F0800320F822300A7830F8A9
:102FA400223003F040039BB263B130F822309BB26D
:102FB40023F4E04323F0700343F4004343F0C003DD
:102FC40020F822300A7830F822309BB223F4E04310
:102FD40023F0700343F4004343F0C00320F822308D
:102FE4000C7830F824309BB223F4804323F0700330
:102FF40048F28002134320F82430097830F8213055
:103004009BB223F4E04323F04003134320F8213020
:103014004DE00A7830F8223003F480439BB263B168
:1030240030F822309BB223F4E04323F0700343F4DE
:10303400404343F0800320F822300A7830F82230ED
:1030440003F040039BB263B130F822309BB223F407
:10305400E04323F0700343F4004343F0C00320F83B
:1030640022300A7830F822309BB223F4E04323F074
:10307400700343F4404343F0800320F822300C787B
:1030840030F824309BB223F4E04323F0400348F2A9
:103094008002134320F82430097830F821309BB2A1
:1030A40023F4804323F07003134320F821300020DD
:1030B40010BC70474B7883B10A7830F822309BB249
:1030C40023F4E04323F0400383F0100343F400436C
:1030D40043F0800320F822300FE00A7830F82230E1
:1030E4009BB223F4804323F0700383F4805343F4AE
:1030F400004343F0800320F822300020704700BFD3
:103104000B7B002B4DD14B783BB30A7830F822303F
:1031140003F040039BB263B130F822309BB223F436
:10312400E04323F0700343F4004343F0C00320F86A
:103134002230CB78012B34D00A7830F822309BB27D
:1031440023F4E04323F0400383F0200343F40043DB
:1031540043F0800320F8223023E00A7830F822304C
:1031640003F480439BB263B130F822309BB223F462
:10317400E04323F0700343F4404343F0800320F81A
:1031840022300A7830F822309BB223F4804323F0B3
:10319400700383F4405343F4004343F0800320F866
:1031A40022300020704700BF11B98023A0F84C30B2
:1031B400002070470020704700207047B0F844009A
:1031C40080B270470020704710B401335B0800EBF5
:1031D400420202F5806207E00C78487844EA002451
:1031E40022F8044B0231013B002BF5D110BC70478F
:1031F400F8B54A78012A40F04B828E690F69BE42C5
:1032040000D93E460D4604460B7B7BB9B6B2334625
:10321400CA884969FFF7D8FFB4F850309BB22344F9
:103224002A7803EB0213A3F804641FE2CB78022B81
:1032340040F06F810B6A9F4280F04E810A7830F82B
:1032440022309BB223F4E04323F0700343F40143A0
:1032540043F0800320F822300B6A9B1B0B620A7830
:1032640030F8223003F040039BB2002B00F09A8028
:103274004B788BBBB0F850309BB2034403EB021283
:103284008EB9B2F80C349BB223F4F8439BB2A2F883
:103294000C34B2F80C346FEA43436FEA53439BB2E5
:1032A400A2F80C3423E03E2E09D8730816F0010F5F
:1032B40000D001339B029BB2A2F80C3417E07309CF
:1032C40016F01F0F00D1013B6FEAC3636FEA53434B
:1032D4009BB2A2F80C340AE0012B08D1B0F85030AC
:1032E4009BB2034403EB0212B3B2A2F80C34B3B2A0
:1032F4006A8969692046FFF767FF6B6933446B612C
:103304002B6A2A69934202D99B1B2B6202E000229A
:103314002A621E466B7893BBB4F850309BB22344A8
:103324002A7803EB02138EB9B3F8042492B222F480
:10333400F84292B2A3F80424B3F804246FEA424298
:103344006FEA524292B2A3F8042424E03E2E09D834
:10335400720816F0010F00D00132920292B2A3F863
:10336400042418E0720916F01F0F00D1013A6FEA25
:10337400C2626FEA524292B2A3F804240BE0012B1A
:1033840009D1B4F850309BB223442A7803EB0213DA
:10339400B2B2A3F80424B3B22A8969692046FFF7BC
:1033A40013FF63E14B788BBBB0F850309BB20344FE
:1033B40003EB02128EB9B2F804349BB223F4F8433F
:1033C4009BB2A2F80434B2F804346FEA43436FEAC0
:1033D40053439BB2A2F8043423E03E2E09D8730869
:1033E40016F0010F00D001339B029BB2A2F8043403
:1033F40017E0730916F01F0F00D1013B6FEAC36396
:103404006FEA53439BB2A2F804340AE0012B08D1BB
:10341400B0F850309BB2034403EB0212B3B2A2F8EB
:103424000434B3B22A8969692046FFF7CDFE6B697B
:1034340033446B612B6A2A69934202D99B1B2B622A
:1034440002E000222A621E466B7893BBB4F8503027
:103454009BB223442A7803EB02138EB9B3F80C24ED
:1034640092B222F4F84292B2A3F80C24B3F80C24DA
:103474006FEA42426FEA524292B2A3F80C2424E06B
:103484003E2E09D8720816F0010F00D001329202C4
:1034940092B2A3F80C2418E0720916F01F0F00D1A1
:1034A400013A6FEAC2626FEA524292B2A3F80C2464
:1034B4000BE0012B09D1B4F850309BB223442A7895
:1034C40003EB0213B2B2A3F80C24B3B26A8969699C
:1034D4002046FFF779FEC9E0097830F8212092B23E
:1034E40022F4E24222F0700242F4004242F08002EE
:1034F40020F82120B0F8502092B20244297802EB3F
:1035040001129BB2A2F804342A896969FFF75CFEB0
:10351400ACE0097830F8213003F040039BB2002B73
:103524003FD08ABBB0F850309BB2034403EB011187
:103534008EB9B1F80C349BB223F4F8439BB2A1F8D2
:103544000C34B1F80C346FEA43436FEA53439BB233
:10355400A1F80C3423E03E2E09D8730816F0010FAD
:1035640000D001339B029BB2A1F80C3417E073091D
:1035740016F01F0F00D1013B6FEAC3636FEA534398
:103584009BB2A1F80C340AE0012A08D1B0F85030FB
:103594009BB2034403EB0111B3B2A1F80C346A8962
:1035A4003EE08ABBB0F850309BB2034403EB0111F8
:1035B4008EB9B1F804349BB223F4F8439BB2A1F85A
:1035C4000434B1F804346FEA43436FEA53439BB2C3
:1035D400A1F8043423E03E2E09D8730816F0010F35
:1035E40000D001339B029BB2A1F8043417E07309A5
:1035F40016F01F0F00D1013B6FEAC3636FEA534318
:103604009BB2A1F804340AE0012A08D1B0F8503082
:103614009BB2034403EB0111B3B2A1F804342A8929
:10362400B3B269692046FFF7CFFD6B7873B92A7886
:1036340034F822309BB223F4E04323F0700343F4C4
:10364400004343F0C00324F822300FE0012B0DD1D6
:103654002A7834F822309BB223F4E04323F0700339
:1036640043F4404343F0800324F822302A7834F8AA
:1036740022309BB223F4E04323F0400383F0300371
:1036840043F4004343F0800324F822300020F8BDC3
:103694000B7B002B3CD18A690B699A4203D9D21A5D
:1036A4008A611A4601E000238B61B0F850309BB266
:1036B40003440C7803EB04138AB9B3F80C2492B2D4
:1036C40022F4F84292B2A3F80C24B3F80C246FEA63
:1036D40042426FEA524292B2A3F80C244AE13E2AD3
:1036E40009D8540812F0010F00D00134A402A4B286
:1036F400A3F80C443EE1540912F01F0F00D1013C21
:103704006FEAC4646FEA5444A4B2A3F80C4431E1F0
:10371400CB78022B40F0A0809ABBB0F850309BB21B
:1037240003440A7803EB02130A698AB9B3F8042440
:1037340092B222F4F84292B2A3F80424B3F8042417
:103744006FEA42426FEA524292B2A3F8042424E0A0
:103754003E2A09D8540812F0010F00D00134A20205
:1037640092B2A3F8042418E0540912F01F0F00D1F8
:10377400013C6FEAC4626FEA524292B2A3F8042495
:103784000BE0012A09D1B0F850309BB203440A7807
:1037940003EB02130A8AA3F804244B789BBBB0F80A
:1037A40050309BB203440A7803EB02130A698AB9C6
:1037B400B3F80C2492B222F4F84292B2A3F80C2487
:1037C400B3F80C246FEA42426FEA524292B2A3F871
:1037D4000C2424E03E2A09D8540812F0010F00D02A
:1037E4000134A20292B2A3F80C2418E0540912F096
:1037F4001F0F00D1013C6FEAC4626FEA524292B2D9
:10380400A3F80C240BE0012B09D1B0F850309BB283
:1038140003440A7803EB02130A8AA3F80C24CB6945
:10382400002B00F0A7800A7830F8223044F24004DC
:103834002340A34202D0002B40F09C8030F8223079
:103844009BB223F4E04323F0700343F4004343F0BA
:10385400C00320F822308DE0012B40F09D808B695D
:103864000C69A34203D91B1B8B61234601E000248E
:103874008C6192BBB0F8502092B202440C7802EBF7
:1038840004128BB9B2F80444A4B224F4F844A4B2E8
:10389400A2F80444B2F804446FEA44446FEA54447E
:1038A400A4B2A2F8044424E03E2B09D85C0813F027
:1038B400010F00D00134A402A4B2A2F8044418E019
:1038C4005C0913F01F0F00D1013C6FEAC4646FEA76
:1038D4005444A4B2A2F804440BE0012A09D1B0F87C
:1038E400502092B202440C7802EB04129CB2A2F86B
:1038F40004444A7892BBB0F8502092B202440C7847
:1039040002EB04128BB9B2F80C349BB223F4F843E3
:103914009BB2A2F80C34B2F80C346FEA43436FEA5A
:1039240053439BB2A2F80C3424E03E2B09D85C0824
:1039340013F0010F00D00134A3029BB2A2F80C349F
:1039440018E05C0913F01F0F00D1013C6FEAC46357
:103954006FEA53439BB2A2F80C340BE0012A09D15D
:10396400B0F8502092B202440C7802EB04129BB2DD
:10397400A2F80C340A7830F822309BB223F4804346
:1039840023F0700383F4405343F4004343F0800373
:1039940020F822300020F8BD0120F8BD30B45D08C5
:1039A40000EB420202F5806207E032F8044BA4B255
:1039B4000C70240A4C700231013D002DF5D113F036
:1039C400010F01D013880B7030BC704708B550B993
:1039D4000E4801F0ADFB0E4801F0AAFB0A2001F0ED
:1039E400BFFB022008BD0346D0F8B40210B100208A
:1039F400C3F8B40209B1C3F8B012012183F89C12D0
:103A04001A701846FEF7E0F8002008BDF8600008B8
:103A14000061000808B519B1C0F8B412002008BD4F
:103A2400054801F085FB054801F082FB0A2001F0FE
:103A340097FB022008BD00BFF86000081861000869
:103A440008B5FEF703F9002008BD00BF08B5D0F89B
:103A5400B43223B11B68984718B1022008BD022074
:103A640008BD002008BD00BF08B5D0F8B4325B68BB
:103A74009847002008BD00BF38B5044600F52A75F4
:103A8400284600F039F90123C4F89432B4F8AE3270
:103A9400C4F8983294F8A81201F01F03012B08D03F
:103AA40013B1022B0AD00EE02946204600F0EEFAAC
:103AB4000EE02946204600F01FFB09E02946204677
:103AC40000F048FB04E001F080012046FEF7DAF83C
:103AD400002038BD38B5044691BB1046D4F8943262
:103AE400032B22D1D4F86021D4F864319A420DD941
:103AF400D21AC4F86021934201D992B200E09AB27A
:103B04000146204600F072FC002038BDD4F8B432DF
:103B14001B692BB194F89C22032A01D120469847B3
:103B2400204600F06BFC002038BD052B15D1002584
:103B3400C4F8945229462046FEF7A4F8284638BD16
:103B44000A46D0F8B4329B694BB190F89C12032911
:103B540007D111469847002038BD002038BD022007
:103B640038BD022038BD00BF10B50446002950D12D
:103B74001046D4F89432022B3CD1226A636A9A42EA
:103B84000DD9D21A226292B20146204600F016FCE8
:103B940000231A4619462046FEF7ACF831E0E169E5
:103BA400B1FBF3F203FB121292B98B4210D8D4F892
:103BB400983299420CD21146204600F0FFFB0021B6
:103BC400C4F898120B460A462046FEF793F818E00C
:103BD400D4F8B432DB682BB194F89C22032A01D1C7
:103BE4002046984780212046FEF74CF8204600F0F6
:103BF40011FC06E0042B00D01BB980212046FEF7FF
:103C040041F894F8A032012B10D1002084F8A002CE
:103C140010BD0A46D0F8B4325B694BB190F89C12DF
:103C2400032907D111469847002010BD002010BD7C
:103C3400022010BD022010BD70B5044640230022AE
:103C44001146FEF70BF80125C4F858514026C4F874
:103C540064613346002280212046FDF7FFFFA56101
:103C6400666284F89C520023C4F894326360C4F8FA
:103C7400A432D4F8B8322BB1D4F8B4325B68002142
:103C840020469847002070BD01740020704700BF93
:103C940090F89C3280F89D32042380F89C320020F6
:103CA400704700BF90F89C32042B03D190F89D32EA
:103CB40080F89C320020704708B590F89C32032BA2
:103CC40004D1D0F8B432DB6903B19847002008BDB1
:103CD4000346002002E00130C0B201331A78002A02
:103CE400F9D1704708B54B88012B03D1C0F8A43231
:103CF40000F084FB08BD00BF0B7803704B78437061
:103D04008B78CA7803EB022343800B794A7903EB5F
:103D1400022383808B79CA7903EB0223C380704723
:103D240010B504468021FDF7ADFF00212046FDF7C4
:103D3400A9FF10BD30B583B005460C460023ADF88D
:103D440006304A88130A013B062B00F2B580DFE8EF
:103D540003F0040D23B3B391A100D0F8B0321B6873
:103D64000DF10601007C98470023AAE0037C4BB9BF
:103D7400D0F8B4329B6A0DF10600984702234370D1
:103D840000239EE0D0F8B432DB6A0DF106009847B8
:103D940002234370002394E0D2B2052A64D8DFE8FA
:103DA40002F0031323334353D0F8B0325B682BB1D2
:103DB4000DF10601007C9847002382E02146FFF7BD
:103DC400AFFF012300207CE0D0F8B0329B682BB118
:103DD4000DF10601007C9847002372E02146FFF7AD
:103DE4009FFF012300206CE0D0F8B032DB682BB1D8
:103DF4000DF10601007C9847002362E02146FFF79D
:103E04008FFF012300205CE0D0F8B0321B692BB196
:103E14000DF10601007C9847002352E02146FFF78C
:103E24007FFF012300204CE0D0F8B0325B692BB156
:103E34000DF10601007C9847002342E02146FFF77C
:103E44006FFF012300203CE0D0F8B0329B692BB116
:103E54000DF10601007C9847002332E02146FFF76C
:103E64005FFF012300202CE02146FFF759FF0123C7
:103E7400002026E0037C3BB9D0F8B4325B6B0DF133
:103E84000600984700231CE02146FFF749FF012361
:103E9400002016E0037C4BB9D0F8B4321B6B0DF153
:103EA400060098470723437000230AE02146FFF7E2
:103EB40037FF0123002004E02146FFF731FF0123EF
:103EC400002093B9BDF8063053B1E28842B19A425A
:103ED40028BF1A46ADF806200146284600F060FACD
:103EE400E38813B9284600F089FA03B030BD00BF57
:103EF40038B504468B88F3B9CB88E3B94B887F2B5C
:103F040019D803F07F0590F89C32032B02D1FFF7F8
:103F140007FF38BD80F89E522946FDF7DBFE204698
:103F240000F06CFA1DB1022384F89C3238BD0123E1
:103F340084F89C3238BD2046FFF7F2FE38BD00BF3E
:103F440038B504460D468978284B1970012903D9E0
:103F54002946FFF7E5FE38BD90F89C32022B02D0CB
:103F6400032B15D039E081B14160032380F89C32E2
:103F7400FFF76CFD022804D129462046FFF7D0FE46
:103F840038BD204600F03AFA38BD00F037FA38BDA3
:103F940049B9022380F89C324160FFF765FD204651
:103FA40000F02CFA38BD4368994213D0D9B2FFF718
:103FB4005BFD0E4B197861602046FFF747FD022830
:103FC40004D129462046FFF7ABFE38BD204600F059
:103FD40015FA38BD00F012FA38BD2946FFF7A0FEE5
:103FE400024B19782046FFF73FFD38BD1C04002022
:103FF40008B5CB88012B02D0FFF792FE08BD90F8DC
:104004009C328BB1022B02D9032B08D00CE0014661
:10401400002341F8083F012200F0C2F908BD012243
:10402400011D00F0BDF908BDFFF77AFE08BD00BF11
:1040340008B590F89C32013B022B12D8CB88022B96
:1040440002D0FFF76DFE08BD0123C360D0F8A4328F
:104054000BB10323C360022200F10C0100F0A0F9AC
:1040640008BDFFF75DFE08BD08B590F89C32013B22
:10407400022B08D84B88012B07D10023C0F8A432A7
:1040840000F0BCF908BDFFF74BFE08BD08B50B787E
:1040940003F06003202B03D0402B01D03BBB04E092
:1040A400D0F8B4329B68984723E04B78092B1BD88F
:1040B400DFE803F011171A141A08051A0E0BFFF79C
:1040C40039FE16E0FFF714FF13E0FFF739FF10E0A5
:1040D400FFF78EFF0DE0FFF7ABFF0AE0FFF702FEEC
:1040E40007E0FFF7C1FF04E0FFF71AFE01E0FFF766
:1040F40017FE002008BD00BF38B505460C460B78F6
:1041040003F06003202B02D0402B00D0F3B995F8C4
:104114009C32013B022B14D82379012B0CD8D5F8FF
:10412400B4329B68214628469847E38883B978B916
:10413400284600F063F90BE021462846FFF7F0FD1E
:1041440006E021462846FFF7EBFD01E0FFF7E8FD16
:10415400002038BD38B504468A880B7803F0600324
:10416400202B06D0D0B2402B03D0002B40F0F5809A
:1041740006E0D4F8B4329B6820469847002038BD46
:10418400202B05D1D4F8B4329B682046984738BD1B
:104194004B78012B32D0002B5ED0032B40F0D8801B
:1041A40094F89C32022B02D0032B12D021E058B198
:1041B400802809D001462046FDF764FD8021204671
:1041C400FDF760FD002038BD2046FFF7A9FD002063
:1041D40038BD4B8843B938B1802805D0CB881BB98A
:1041E40001462046FDF74EFD204600F007F9002069
:1041F40038BD2046FFF794FD002038BD94F89C326A
:10420400022B02D0032B12D021E058B1802809D010
:1042140001462046FDF736FD80212046FDF732FD9C
:10422400002038BD2046FFF77BFD002038BD4B88B9
:10423400002B40F0978010F07F0F03D001462046FA
:10424400FDF728FD204600F0D9F8002038BD2046AF
:10425400FFF766FD002038BD94F89C32022B02D093
:10426400032B26D06FE030B1802804D02046FFF71E
:1042740057FD002038BD12F0800F09D000F07F00F8
:1042840000EB8000830003F110012144043108E0B5
:1042940000F07F0000EB8000830003F5A871214447
:1042A400043100250D600222204600F079F82846EA
:1042B40038BD52B2002A0CDA00F00F0303EB83037B
:1042C4009D002544AB6993B92046FFF729FD0020E2
:1042D40038BD00F00F0303EB83039D002544D5F89C
:1042E400583123B92046FFF71BFD002038BD002AB2
:1042F40009DA00F07F0202EB8202930003F1100559
:104304002544043508E000F07F0202EB82029300AA
:1043140003F5A8752544043508B1802802D100238B
:104324002B6009E001462046FDF7BCFC10B10123D7
:104334002B6001E000232B6002222946204600F076
:104344002FF8002038BD2046FFF7EAFC002038BDD6
:104354002046FFF7E5FC002038BD2046FFF7E0FCCF
:10436400002038BD002038BDC8B170B50D461646D2
:104374000446FFF7ADFC0130400030802870032371
:104384006B70022307E05A1CD2B20134E9540233A1
:10439400DBB20021A95421780029F4D170BD704703
:1043A40010B513460222C0F89422C36103620A4680
:1043B4000021FDF797FC002010BD00BF08B513468F
:1043C4000A460021FDF78EFC002008BD10B51346F7
:1043D4000322C0F89422C0F85C31C0F860310A4668
:1043E4000021FDF787FC002010BD00BF08B513466F
:1043F4000A460021FDF77EFC002008BD08B5042311
:10440400C0F8943200231A461946FDF76BFC0020CD
:1044140008BD00BF08B50523C0F8943200231A462E
:104424001946FDF767FC002008BD00BF10B5D0F8A1
:10443400B842D0F8BC325BB194F80002FF2807D030
:104444009B6894F8012221469847FF2384F80032A0
:10445400002010BD43230380004870476C000020F7
:10446400432303800048704738010020432303801E
:1044740000487047F40000200A2303800048704776
:10448400E800002038B50446D0F8B852FDF73AFCED
:10449400C5F80C02D4F8B8324BB1D4F8BC32DB689E
:1044A40005F50371D5F804029847002038BD0220B1
:1044B40038BD00BF70B5D0F8B822D0F8C052FAB1F8
:1044C40001EB8104A3000344DB69ABB101EB81067A
:1044D400F4002C44A56BB3FBF5F405FB14335BB972
:1044E40001EB8102930003440024DC61234622464D
:1044F400FDF7F8FB204670BD0020C2F8140270BD21
:10450400022070BD70B582B005460C46D0F8B86282
:1045140000238DF80730ADF804300B7813F06002F7
:1045240027D0202A54D1CA88DAB113F0800F0CD0D6
:10453400D0F8BC329B68314660789847E2883146AF
:104544002846FFF72DFF002047E04B7886F800321D
:104554008B7986F80132CA883146FFF737FF00208D
:104564003BE0D0F8BC329B68002248789847002092
:1045740033E04B780A2B10D00B2B1DD023BB90F8C3
:104584009C32032B05D1022201A9FFF709FF002069
:1045940023E0FFF7C5FB02201FE090F89C32032BB9
:1045A40006D101220DF10701FFF7FAFE002014E005
:1045B400FFF7B6FB022010E090F89C32032B0BD0DF
:1045C400FFF7AEFB022008E0FFF7AAFB022004E09D
:1045D400FFF7A6FB022000E0002002B070BD00BF80
:1045E40038B504468121FDF745FB0025E56201212C
:1045F4002046FDF73FFBC4F86C5182212046FDF7AD
:1046040039FB2564D4F8B8324BB1D4F8BC325B68BA
:104614009847D4F8B802FDF77FFBC4F8B8520020DD
:1046240038BD00BF38B50446037C8BB94FF4007322
:1046340002228121FDF712FB0125E5624FF400738C
:10464400022229462046FDF709FBC4F86C510EE00E
:10465400402302228121FDF701FB0125E56240236D
:10466400022229462046FDF7F9FAC4F86C510823C2
:10467400032282212046FDF7F1FA012323644FF43B
:104684000770FDF745FB0546C4F8B802E8B1D4F855
:10469400BC321B6898470023C5F81432C5F8183299
:1046A400237C4BB94FF40073D5F804220121204632
:1046B400FDF720FB002038BD4023D5F8042201215A
:1046C4002046FDF717FB002038BD012038BD00BF90
:1046D40019B1C0F8BC12002070470220704700BF17
:1046E400D0F8B832C3F80812C3F81022002070477B
:1046F400D0F8B832C3F8041200207047D0F8B822BA
:104704009AB108B5037C43B94FF40073D2F804227C
:104714000121FDF7EFFA002008BD4023D2F804225E
:104724000121FDF7E7FA002008BD0220704700BF11
:104734002DE9F04188B0002404940594069407946C
:104744002C4B9A6942F010029A619A6902F01002A5
:104754000092009A9A6942F020029A619A6902F0E2
:1047640020020192019A9A6942F004029A619A69BC
:1047740002F004020292029A9A6942F008029A61D3
:104784009B6903F008030393039BDFF874802246BC
:10479400C0214046FCF75CFC174F224630213846C6
:1047A400FCF756FC154E224640F603413046FCF712
:1047B4004FFCC02304930124059406940325079514
:1047C40004A94046FCF74CFB30230493059406945B
:1047D400079504A93846FCF743FB40F603430493CA
:1047E40005940694079504A93046FCF739FB08B0F4
:1047F400BDE8F0810010024000100140000C0140AF
:104804000008014010B582B004460121FDF782F88A
:104814004FF2F003984227D10022ADF800208DF822
:10482400022001920C238DF8003069462046FCF7E3
:1048340007FE08B1FBF772FD01238DF804308DF8F3
:1048440005308DF8063014238DF80730002201A9B5
:104854002046FCF7E1FE08B1FBF760FD4FF2F002E1
:1048640001212046FDF74EF802B010BD00B583B01B
:104874000023009301930D480D4A02604FF0FF326C
:1048840042608360FCF786FF08B1FBF747FD012314
:1048940000930223019369460448FCF7DFFF08B143
:1048A400FBF73CFD03B05DF804FB00BFB013002030
:1048B400002800400268104B9A421BD100B583B017
:1048C400FCF734FC0D4BDA6942F00062DA61DB6913
:1048D40003F000630193019B0122094B1A6000223B
:1048E40011460320FCF7CCFB0320FCF7FBFB03B0D1
:1048F4005DF804FB704700BF002800400010024030
:104904003C04424200B58DB02422002103A800F0EB
:1049140007FC00230193029310484FF08042026089
:10492400436083604FF6FF72C260036183610123B9
:1049340003930593099303A9FBF784FD08B1FBF7DF
:10494400EDFC00230193029301A90448FBF7CAFD7F
:1049540008B1FBF7E3FC0DB05DF804FB8414002000
:1049640000B58DB02422002103A800F0D9FB002358
:10497400019302931048114A0260436083604FF62A
:10498400FF72C2600361836101230393059309935A
:1049940003A9FBF757FD08B1FBF7C0FC0023019303
:1049A400029301A90448FBF79DFD08B1FBF7B6FC8F
:1049B4000DB05DF804FB00BF441400200004004067
:1049C40000B58DB02422002103A800F0A9FB002328
:1049D400019302931048114A0260436083604FF6CA
:1049E400FF72C260036183610123039305930993FA
:1049F40003A9FBF727FD08B1FBF790FC0023019303
:104A0400029301A90448FBF76DFD08B1FBF786FC8E
:104A14000DB05DF804FB00BFC41300200008004083
:104A240000B58DB02422002103A800F079FB0023F7
:104A3400019302931048114A0260436083604FF669
:104A4400FF72C26003618361012303930593099399
:104A540003A9FBF7F7FC08B1FBF760FC0023019303
:104A6400029301A90448FBF73DFD08B1FBF756FC8E
:104A74000DB05DF804FB00BF04140020000C0040DE
:104A840010B58EB000230A930B930C930D93036817
:104A9400B3F1804F38D103F50433DA6942F00102EF
:104AA400DA61DA6902F001020192019A9A6942F02C
:104AB40004029A619A6902F004020292029A9A69C3
:104AC40042F008029A619B6903F008030393039B75
:104AD4000EAC4FF4004344F8103D21463B48FCF72C
:104AE400BFF908230A9300230B930C9321463848FB
:104AF400FCF7B6F9374A536823F4407343F0E06394
:104B040043F4807353605FE0334A934221D1334BC3
:104B1400DA6942F00202DA61DA6902F0020204920E
:104B2400049A9A6942F010029A619B6903F0100397
:104B34000593059B0EA9C02341F8103D2848FCF7B6
:104B44008FF9244A536843F0E06343F440635360AD
:104B54003AE0244A93421AD1204BDA6942F0040223
:104B6400DA61DA6902F004020692069A9A6942F05E
:104B740008029A619B6903F008030793079B0EA937
:104B8400C02341F8103D1248FCF76AF91CE0164AAC
:104B9400934219D1114BDA6942F00802DA61DA69F9
:104BA40002F008020892089A9A6942F004029A6193
:104BB4009B6903F004030993099B0EA9032341F89D
:104BC400103D0248FCF74CF90EB010BD000801403E
:104BD400000C0140000001400004004000100240AD
:104BE4000010014000080040000C004000B585B0F2
:104BF40000230193029303931048114A02608360D7
:104C0400037303754FF46022C2614360012303619F
:104C140000F0A6F908B1FBF781FB0A2301930123F5
:104C240002930023039301A9044800F0D5F808B1C6
:104C3400FBF774FB05B05DF804FB00BFF41400201F
:104C44000024014000B585B000230193029303932F
:104C54001048114A02608360037303754FF46022A5
:104C6400C26143600123036100F07AF908B1FBF7E4
:104C740055FB04230193012302930023039301A909
:104C8400044800F0A9F808B1FBF748FB05B05DF84B
:104C940004FB00BFC41400200028014000B585B007
:104CA40000230193029303931048114A0260836026
:104CB400037303754FF46022C261436001230361EF
:104CC40000F04EF908B1FBF729FB022301930123FD
:104CD40002930023039301A9044800F07DF808B16E
:104CE400FBF71CFB05B05DF804FB00BF2415002096
:104CF400003C014000B58BB0002306930793089352
:104D0400099303682E4A93421AD12E4B9A6942F4AE
:104D140000729A619A6902F400720092009A9A6988
:104D240042F010029A619B6903F010030193019B06
:104D340003230693079306A92348FCF791F83CE064
:104D4400224A93421BD11F4B9A6942F480629A61B2
:104D54009A6902F480620292029A9A6942F0040209
:104D64009A619B6903F004030393039B3023069326
:104D74000323079306A91648FCF772F81DE0154AA9
:104D840093421AD10F4B9A6942F400429A619A698C
:104D940002F400420492049A9A6942F004029A616D
:104DA4009B6903F004030593059B0C2306930323DB
:104DB400079306A90648FCF753F80BB05DF804FB0B
:104DC400002401400010024000100140002801406E
:104DD40000080140003C014070B483B000230193FB
:104DE40090F82430012B00F08880012380F82430CF
:104DF4004B68062B0ED80668756B03EB8303053BE3
:104E04001F249C4025EA04040A6802FA03F323439E
:104E140073631EE00C2B0ED805682A6B03EB830327
:104E2400233B1F249C4022EA04040A6802FA03F389
:104E340023432B630DE00568EA6A03EB8303413BDC
:104E44001F249C4022EA04040A6802FA03F3234361
:104E5400EB620B68092B0ED90668F56803EB430374
:104E64001E3B07249C4025EA04048A6802FA03F3E3
:104E74002343F3600CE00668356903EB430307241E
:104E84009C4025EA04048A6802FA03F3234333614D
:104E94000B68103B012B26D803681A4A93421CD195
:104EA4009A6812F4000F20D19A6842F400029A60C2
:104EB4000B68102B1BD1144B1B68144AA2FB032351
:104EC4009B0C03EB83035A00019202E0019B013B1C
:104ED4000193019B002BF9D10AE0836A43F020037C
:104EE4008362012304E0002302E0002300E00023A6
:104EF400002280F82420184600E0022003B070BC91
:104F0400704700BF002401400800002083DE1B43DB
:104F140038B503689A6812F0010F1ED004469A68E7
:104F240022F001029A60FBF745FB05460EE0FBF711
:104F340041FB401B022809D9A36A43F01003A36272
:104F4400E36A43F00103E362012038BD23689B68F0
:104F540013F0010FEBD1002038BD002038BD00BF95
:104F6400002800F0888070B50446836A23B9C362C0
:104F740080F82430FFF7BEFE2046FFF7C9FFA36A7E
:104F840013F0100F71D100286FD1A36A23F4885352
:104F940023F0020343F00203A36263682168374AE3
:104FA400914206D1E269B2F5402F03D14FF40022B9
:104FB40000E0E2691343257B43EA4503A268B2F5A6
:104FC400807F04D0012A05D14FF4807603E04FF4AA
:104FD400807600E00026227D012A0FD135B9A2692E
:104FE400013A46EA423242F4006607E0A26A42F01D
:104FF4002002A262E26A42F00102E2624A6822F4FA
:10500400694232434A6021688D681D4A2A401A4326
:105014008A60A268B2F5807F01D0012A03D1226997
:10502400013A110500E000212568EA6A22F47002C1
:105034000A43EA6222689168124A0A40934208D1FC
:105044000023E362A36A23F0030343F00103A36292
:1050540070BDA36A23F0120343F01003A362E36A52
:1050640043F00103E362012070BDA36A43F010031F
:10507400A362012070BD0120704700BF003C0140C5
:10508400FDF7E1FFFE0E1FFF002103E00B4B5B5811
:10509400435004310A480B4B42189A42F6D30A4A49
:1050A40002E0002342F8043B084B9A42F9D3FCF790
:1050B40043F800F00FF8FBF7FFF87047D0610008E1
:1050C40000000020E0010020E0010020581500202D
:1050D400FEE700000E4B70B51E460E4C0025E41A88
:1050E400A410A54204D056F8253098470135F8E7B6
:1050F40000F0B0FF084B094C1E46E41AA41000252A
:10510400A54204D056F8253098470135F8E770BD1C
:10511400C8610008C8610008C8610008CC610008C3
:1051240003460244934202D003F8011BFAE7704796
:105134000FB40A4B13B51C6824B1A36913B92046F4
:1051440000F062F805AB049AA1682046019300F0D0
:105154006BF902B0BDE8104004B07047DC010020D8
:1051640038B5084B05461C6824B1A36913B9204619
:1051740000F04AF8A26829462046BDE8384000F00D
:105184000BBC00BFDC010020014900F0A9B800BF3E
:10519400855D000810B50446002303604360836006
:1051A40081814366C2810361436183611946082298
:1051B4005C30FFF7B5FF054B24626362044BA362C6
:1051C400044BE362044B236310BD00BF295A00085B
:1051D4004B5A0008835A0008A75A000870B5682380
:1051E4004D1E5D430E4605F1740100F097F8044628
:1051F40040B1002180E842000C30A06005F1680253
:10520400FFF78EFF204670BD836910B5044633BB9B
:105214008364C3640365124B124A1B68826298421A
:1052240004BF0123836100F01FF86060204600F092
:105234001BF8A060204600F017F80022E06004216B
:105244006068FFF7A7FF01220921A068FFF7A2FF0A
:1052540002221221E068FFF79DFF0123A36110BD24
:10526400306100088D510008F8B51C4B07461E68D4
:10527400B36913B93046FFF7C7FF4836B46873689B
:10528400013B04D4B4F90C507DB16834F8E73368B9
:105294000BB13668F2E704213846FFF79FFF306010
:1052A4000028F6D10C233B60F8BD4FF6FF73E38171
:1052B4000123A38165662560A5606560256165613C
:1052C400A5610822294604F15C00FFF729FF656304
:1052D400A563A564E5642046F8BD00BF30610008FD
:1052E4002DE9F8438046894600F14804002694B12C
:1052F400A5686768013F0CD4AB89012B07D9B5F9C0
:105304000E30013303D029464046C847064368356A
:10531400F0E72468EBE73046BDE8F88370B5CD1CB0
:1053240025F0030508350C2D38BF0C25002D064645
:1053340001DBA94202D90C23336046E000F0CAFD28
:10534400234B1C681A462146A1B10B685B1B0ED483
:105354000B2B03D90B60CC18CD501EE08C420BBF35
:1053640063684B681360636018BF0C4615E00C4615
:105374004968E9E7174C23681BB9304600F042FB43
:1053840020602946304600F03DFB431C18D0C41C65
:1053940024F00304A0420DD12560304600F09BFDAB
:1053A40004F10B00231D20F00700C31A0ED05A424B
:1053B400E25070BD211A304600F024FB0130EBD1DD
:1053C4000C233360304600F086FD002070BD00BF22
:1053D4002404002020040020936810B4013B002B17
:1053E400936008DA9469A34202DBCBB20A2B02D1A0
:1053F40010BC00F05BBB1368581C10601970C8B275
:1054040010BC7047F8B506460F461446D518AC4292
:1054140008D03A4614F8011B3046FFF7DDFF431C61
:10542400F5D100E00020F8BD2DE9F04F9DB00C4609
:1054340017460393064618B183690BB9FFF7E4FED8
:105444007F4B9C4201D1746808E07E4B9C4201D1A1
:10545400B46803E07C4B9C4208BFF468A389180736
:105464000CD5236953B10023099320238DF82930E7
:1054740030238DF82A30DFF8D4B144E02146304699
:1054840000F07AFB0028EED04FF0FF30D5E0039A0D
:10549400111D12680391002A80F28C80524243F05D
:1054A40002000792049098F800302E2B00F08480BC
:1054B400032298F80010654800F0FEFC48B1402330
:1054C400CBEB000003FA00F0049B08F10108184339
:1054D400049098F8001006225D4808F101078DF841
:1054E400281000F0E9FC002800F09580594B002BAF
:1054F40040F08880039B073323F0070308330393AA
:10550400099B53440993B846454615F8013B1BB91A
:10551400B8EB07090FD003E0252BF9D0A846F3E731
:105524004B463A4621463046FFF76CFF01307FD0A8
:10553400099B4B44099398F80030002B78D0002342
:105544004FF0FF3204930793059206938DF853307E
:105554001A930127052229783F4800F0ADFC05F194
:105564000108049B38B13C4A4546801A07FA00F00A
:1055740018430490EEE7D90644BF20228DF8532047
:105584001A0744BF2B228DF853202A782A2A3FF485
:105594007EAF079A00210A20A84698F8003001350A
:1055A400303B092B03D800FB02320121F4E7002928
:1055B4003FF479AF079276E798F801302A2B0BD1A4
:1055C400039B08F102081A1D1B680392002BB8BF45
:1055D4004FF0FF3305936BE700231946059308F159
:1055E40001000A25804698F800200130303A092A43
:1055F40003D805FB01210123F4E7002B3FF458AF46
:10560400059155E703AB00932246144B04A9304699
:10561400AFF3008007E003AB009322460F4B04A9CD
:10562400304600F093F8B0F1FF3F82467FF468AF54
:10563400A3895B063FF528AF09981DB0BDE8F08F3C
:105644003461000854610008746100089A6100081C
:105654009E610008000000009461000809540008DD
:105664002DE9F04791461F460A698B680646934226
:10567400B8BF1346C9F8003091F843200C46DDF852
:10568400208012B10133C9F800302368990642BF63
:10569400D9F800300233C9F80030256815F0060542
:1056A40010D104F1190A07E0012352463946304665
:1056B400C04701301AD00135E368D9F800209B1A9D
:1056C4009D42F1DB94F843302268003318BF012374
:1056D40092060FD5E118302081F843005A1C94F843
:1056E40045102244023382F8431003E04FF0FF30A8
:1056F400BDE8F08704F1430239463046C047013023
:10570400F4D02268D9F80050E36802F00602042AB3
:1057140008BF5D1B2269A3680CBF25EAE575002557
:105724009342C4BF9B1AED184FF000091A344D453B
:1057340009D00123224639463046C0470130D5D02E
:1057440009F10109F3E70020BDE8F0872DE9F043F2
:1057540017460A7E85B06E2A984606460C460C9B70
:1057640001F1430E00F0AE8011D8632A22D009D88B
:10577400002A00F0BB80582A40F0CA8081F84520F6
:10578400834955E0642A1ED0692A1CD0C0E0732ADC
:1057940000F0B08009D86F2A2ED0702A40F0B8806B
:1057A4000A6842F020020A603EE0752A24D0782A72
:1057B4003AD0ADE01A6801F14205111D1960136871
:1057C40084F84230A8E021681A6811F0800F02D0F2
:1057D400111D196008E011F0400F02F10401196075
:1057E40002D0B2F9003000E01368002B3CDA2D221D
:1057F4005B4284F8432037E021681A6811F0800F77
:1058040002D0111D196007E011F0400F02F10401EC
:10581400196001D0138800E01368227E5C496F2A66
:1058240014BF0A2208221BE078225A4984F8452032
:105834002268186812F0800F00F104051D6003D17E
:10584400550601D5038800E00368D00744BF42F041
:10585400200222601BB9226822F02002226010225A
:10586400002084F8430001E049490A226568002DBC
:10587400A56008DB206820F0040020602BB9002D0F
:105884007DD175460CE0002B79D07546B3FBF2F060
:1058940002FB1033CB5C05F8013D03460028F5D12B
:1058A400082A0BD12368DA0708D5236962689A426B
:1058B400DEBF302305F8013C05F1FF35C5EB0E03CF
:1058C40023612EE008681A6810F0800F496903D03C
:1058D400101D1860136808E010F0400F02F1040076
:1058E4001860136801D0198000E019600023236157
:1058F400754616E01A68111D196015680021626862
:10590400284600F0D9FA08B1401B6060636804E0DF
:1059140004F1420584F8422001232361002384F822
:105924004330CDF800803B4603AA21463046FFF7BA
:1059340097FE013002D14FF0FF3026E023692A465A
:1059440039463046C0470130F5D023689B0710D54F
:10595400002504F1190907E001234A463946304677
:10596400C0470130E7D00135E368039A9B1A9D4292
:10597400F2DBE068039B9842B8BF184605E00B7859
:1059840004F1420584F842308AE705B0BDE8F083AB
:10599400A5610008B661000870B50D4614460646B8
:1059A40018B183690BB9FFF72FFC134B9C4201D14B
:1059B400746808E0114B9C4201D1B46803E0104BB9
:1059C4009C4208BFF468A368013B002BA3600CDA77
:1059D400A269934202DBEBB20A2B06D12246294686
:1059E4003046BDE8704000F061B82368E8B25A1C44
:1059F40022601D7070BD00BF34610008546100084E
:105A04007461000838B5064C002305460846236037
:105A140000F00AFB431C02D1236803B12B6038BD9C
:105A24005415002010B50C46B1F90E1000F0A0FA80
:105A34000028ABBF636DA3891B1823F48053ACBF4C
:105A44006365A38110BD2DE9F0411F468B8905468E
:105A5400DB050C46164605D502230022B1F90E10CB
:105A640000F0B8F9A389324623F48053A381B4F932
:105A74000E103B462846BDE8F04100F06BB810B567
:105A84000C46B1F90E1000F0A5F9431CA38915BF0B
:105A9400606523F4805343F48053A38118BFA3812A
:105AA40010BDB1F90E1000F0D5B80000F8B50F46DE
:105AB4001446054618B183690BB9FFF7A5FB224BC1
:105AC4009C4201D16C6808E0204B9C4201D1AC6837
